:100000000C94820F0C94BD0F0C94BD0F0C94BD0F7B
:100010000C94BD0F0C94BD0F0C94BD0F0C94BD0F30
:100020000C94BD0F0C94BD0F0C94BD0F0C94BD0F20
:100030000C94BD0F0C94A2470C94BD0F0C94BD0FF3
:100040000C94BD0F0C94BD0F0C94BD0F0C94BD0F00
:100050000C94BD0F0C94BD0F0C94BD0F0C94BD0FF0
:100060000C94BD0F0D9473010C94BD0F0D949E0163
:100070000C94BD0F0C9499BA0C94BD0F0C94BD0F49
:100080000C9431470C94BD0F0C94BD0F0C94BD0F14
:100090000D94D1010C94BD0F0D94DF010C94BD0F94
:1000A0000C94BD0F0C94BD0F0C94BD0F0C94BD0FA0
:1000B0000C94BD0F0C94BD0F0C94BD0F0C94CA474B
:1000C0000C94BD0F0C94BD0F0C94BD0F0C94BD0F80
:1000D0000C94BD0F0C94BD0F0C94BD0F0C94BD0F70
:1000E0000C94BD0F5D40EB40AB408940B64073417E
:1000F00073418940DF407341EE40F24007410B41BC
:1001000073417341BE408940DB4073417040BA4047
:100110000F4124412C41734173415241502D53747E
:100120006F702074726967676572656400526570EC
:100130006C6963617430722031004475706C69635E
:1001400061746F722072656164792E2E2E0D0A0023
:100150009302690000006900EE0169000000690077
:100160002601B801000000007003BC000000BC00C4
:10017000E006BC000000BC00B807BC000000BC00EA
:100180002D08BC00A908BC000000BC00C00D4D013A
:1001900000000000C00D20010000BC005311BC0095
:1001A0000000BC005B12B10100000000C00DC800DF
:1001B00000001400C00DC80000001400910E900152
:1001C000000014005A10900100001400C00D20031C
:1001D00000000000C805C80000001400C805C800E1
:1001E00000001400C805C80000001400DD04B004BD
:1001F000000014007505C800000014007505C80053
:10020000000014007505C800000014009704B00435
:100210000000000070039001000014005504C800A5
:10022000000014002705C8000000140070039001AE
:1002300000000000C00DC80000001400C00DC80080
:10024000000014005A10C80000001400C00D9001F6
:10025000000000001704C8000000DC00270564004F
:10026000000078007505C8000000DC00200664006E
:1002700000007800E006C8000000DC002006C8008E
:100280000000DC002006C8000000DC002D08C800CB
:100290000000000024F404D9201BC40C5C0E980458
:1002A000C4095F0265077101F405F900FB04B3009E
:1002B00048048700C1036900580355000303450043
:1002C000BE023A008402310053022A0029022500AE
:1002D00004022000E4011C00C8011900AF0117004E
:1002E00098011400840113007101100061011000D5
:1002F00051010E0043010D0036010B002B010B00D4
:1003000020010B00150109000C0109000301080080
:10031000FB000800F3000800EB000700E400060003
:10032000DE000600D8000600D2000600CC00050062
:10033000C7000500C2000500BD000400B9000400AC
:10034000B5000400B1000400AD000400A9000400E1
:10035000A5000300A20003009F0004009B0003000F
:100360009800030095000200930003009000030032
:100370008D0002008B00030088000200860002004E
:1003800084000300810002007F0002007D00020063
:100390007B00020079000200770001007600020075
:1003A0007400020072000100710002006F00020080
:1003B0006D0001006C0002006A000100690002008B
:1003C0006700010066000100650001006400020092
:1003D0006200010061000100600001005F00020096
:1003E0005D0001005C0001005B0001005A0001009B
:1003F000590001005800010057000100560001009B
:10040000550001005400010053000000530001009A
:100410005200010051000100500001004F00010096
:100420004E0000004E0001004D0001004C00010094
:100430004B0000004B0001004A0001004900010090
:10044000480000004800010047000100460000008D
:100450004600010045000000450001004400010085
:100460004300000043000100420000004200010080
:100470004100000041000100400001003F00000079
:100480003F0001003E0000003E0001003D00000072
:100490003D0001003C0000003C0000003C00010069
:1004A0003B0000003B0001003A0000003A00010060
:1004B0003900000039000100380000003800000059
:1004C000380001003700000037000100360000004E
:1004D0003600000036000100350000003500000045
:1004E0003500010034000000340000003400010039
:1004F0003300000033000000330001003200000030
:100500003200000032000100310000003100000024
:100510003100010030000000300000003000010018
:100520002F0000002F0000002F0000002F0001000E
:100530002E0000002E0000002E0001002D00000003
:100540002D0000002D0000002D0001002C000000F7
:100550002C0000002C0000002C0001002B000000EB
:100560002B0000002B0000002B0001002A000000DF
:100570002A0000002A0000002A00010029000000D3
:1005800029000000290000002900000029000100C6
:1005900028000000280000002800000028000000BB
:1005A00028000100270000002700000027000000AD
:1005B00027000000270001002600000026000000A0
:1005C0002600000026000000260001002500000093
:1005D0002500000025000000250000002500000087
:1005E0002500010024000000240000002400000079
:1005F000240000002400010023000000230000006C
:10060000230000002300000023000000230000005E
:100610002300010022000000220000002200000050
:100620002200000022000000220001002100000042
:100630002100000021000000210000002100000036
:100640002100000021000100200000002000000027
:10065000200000002000000020000000200000001A
:1006600020000000200001001F0000001F0000000B
:100670001F0000001F0000001F0000001F000000FE
:100680001F0001001E0000001E0000001E000000F0
:100690001E00000024F4D43050C38E20C2A24017A4
:1006A000828B7011127A910D816CD90AA861E108D0
:1006B000C7586607615143061E4B5D05C145A70437
:1006C0001A411104093D9803713931034036DB02A8
:1006D00065339102D4305402802E1D02632CEE014A
:1006E000752AC501B028A001102781018F2564015A
:1006F0002B244B01E0223401AC211F018D200D0180
:10070000801FFC00841EED00971DDF00B81CD20086
:10071000E61BC600201BBC00641AB200B219A80078
:100720000A19A0006A189900D117910040178B0090
:10073000B516840031167E00B31579003A157300A2
:10074000C7146F0058146A00EE1366008813630024
:1007500025135E00C7125B006C125700151254007F
:10076000C111510070114F0021114B00D6104900EA
:100770008D1047004610440002104200C00F400098
:10078000800F3E00420F3C00060F3B00CB0E3800AE
:10079000930E37005C0E3500270E3400F30D320047
:1007A000C10D3100900D3000600D2E00320D2D0076
:1007B000050D2C00D90C2B00AE0C2900850C29004E
:1007C0005C0C2700350C27000E0C2600E80B2400DB
:1007D000C40B2400A00B23007D0B23005A0B210027
:1007E000390B2100180B2000F80A1F00D90A1E003F
:1007F000BB0A1E009D0A1D00800A1D00630A1C0022
:10080000470A1B002C0A1B00110A1A00F7091A00DC
:10081000DD091900C4091900AB0919009209170074
:100820007B091800630917004C09160036091600E9
:10083000200916000A091500F5081500E008140043
:10084000CC081400B8081400A40814009008130081
:100850007D0812006B0813005808120046081200A9
:1008600034081100230811001208110001081100BA
:10087000F0071000E0071000D0071000C0071000BC
:10088000B0070F00A107100091070E0083070F00AB
:1008900074070F0065070E0057070E0049070E008A
:1008A0003B070D002E070E0020070D0013070D005B
:1008B00006070D00F9060C00ED060D00E0060C0021
:1008C000D4060C00C8060C00BC060C00B0060C00D8
:1008D000A4060B0099060C008D060B0082060B0087
:1008E00077060B006C060B0061060A0057060B002A
:1008F0004C060A0042060A0038060A002E060A00C4
:1009000024060A001A060A001006090007060A0053
:10091000FD050900F4050900EB050900E2050900E1
:10092000D9050900D0050900C7050900BE05090061
:10093000B5050800AD050800A50509009C050800DF
:10094000940508008C050800840508007C05080053
:10095000740508006C050700650508005D050700C3
:10096000560508004E05070047050700400508002A
:1009700038050700310507002A0507002305070091
:100980001C050600160507000F05070008050600F0
:1009900002050700FB040600F5040700EE0406004C
:1009A000E8040600E2040700DB040600D5040600A4
:1009B000CF040600C9040600C3040600BD040600F7
:1009C000B7040600B1040500AC040600A604060046
:1009D000A00405009B040600950405009004060091
:1009E0008A04050085040500800406007A040500D9
:1009F00075040500700405006B040500660405001D
:100A0000610405005C04050057040500520405005C
:100A10004D04050048040500430405003E0404009D
:100A20003A04050035040500300404002C040500D8
:100A300027040400230405001E0404001A04040013
:100A400016040500110404000D0404000904050047
:100A50000404040000040400FC030400F803040080
:100A6000F4030400F0030400EC030400E8030400B2
:100A7000E4030400E0030400DC030400D8030400E2
:100A8000D4030400D0030400CC030400C803030013
:100A9000C5030300890899000000005265704720D3
:100AA0004275696C64009600FF84036901000014BC
:100AB0000083048800000014008C00000000000087
:100AC000000030F8FFFF00000000000000009B0065
:100AD0000000000000000000000000000000000016
:100AE000000000A51C0000180000A040950483042D
:100AF000DC0500001400901F8B00000000000000C7
:100B000000A00F00000000000000000000800000B6
:100B1000009B0000000000000000A40F0000000087
:100B2000000000000000A51C0000180AD7233C9517
:100B3000049B000000000000000000000000000016
:100B4000000000000000A00F000018F628204180DF
:100B500002891B950000000042792068616E6420C4
:100B60006D6F7665207468652065782D00950100AD
:100B7000000074727564657220746F206469666623
:100B80006572656E7420009501000000706F7369D6
:100B900074696F6E73206F766572207468652020AB
:100BA0000095070000006275696C6420706C6174C8
:100BB000666F726D2E2E2E2E00950000000041648F
:100BC0006A757374207468652073706163696E67F9
:100BD00020200095010000006265747765656E2035
:100BE000746865206578747275646572009501009B
:100BF00000006E6F7A7A6C6520616E6420706C61A3
:100C000074666F726D200095070000007769746844
:100C100020746865206B6E6F62732E2E2E00950017
:100C2000000000756E6465722074686520706C61E8
:100C300074666F726D2020009501000000616E6483
:100C40002061207368656574206F6620706170652F
:100C500072009501000000706C616365642062653C
:100C6000747765656E207468652020009507000024
:100C700000706C6174666F726D20616E64207468C0
:100C8000652E2E2E0095000000006E6F7A7A6C653E
:100C90002E205768656E20796F752061726500950A
:100CA00001000000646F6E652C2070726573732004
:100CB00074686520202020200095070000006365EF
:100CC0006E74657220627574746F6E2E00891F6277
:100CD000003B02000000002110422063308440A548
:100CE00050C660E770088129914AA16BB18CC1ADF3
:100CF000D1CEE1EFF13112100273325222B552948B
:100D000042F772D662399318837BB35AA3BDD39C42
:100D1000C3FFF3DEE36224433420040114E664C716
:100D200074A44485546AA54BB528850995EEE5CF92
:100D3000F5ACC58DD55336722611163006D776F62A
:100D4000669556B4465BB77AA719973887DFF7FEE2
:100D5000E79DD7BCC7C448E5588668A778400861B6
:100D60001802282338CCC9EDD98EE9AFF948896932
:100D7000990AA92BB9F55AD44AB77A966A711A50CA
:100D80000A333A122AFDDBDCCBBFFB9EEB799B5882
:100D90008B3BBB1AABA66C877CE44CC55C222C0356
:100DA0003C600C411CAEED8FFDECCDCDDD2AAD0BD2
:100DB000BD688D499D977EB66ED55EF44E133E326A
:100DC0002E511E700E9FFFBEEFDDDFFCCF1BBF3A22
:100DD000AF599F788F8891A981CAB1EBA10CD12D11
:100DE000C14EF16FE18010A100C230E32004502514
:100DF0004046706760B9839893FBA3DAB33DC31C88
:100E0000D37FE35EF3B1029012F322D23235421463
:100E10005277625672EAB5CBA5A89589856EF54FD3
:100E2000E52CD50DC5E234C324A0148104667447B3
:100E30006424540544DBA7FAB79987B8975FE77E27
:100E4000F71DC73CD7D326F2369106B01657667603
:100E500076154634564CD96DC90EF92FE9C899E973
:100E6000898AB9ABA94458654806782768C018E153
:100E7000088238A3287DCB5CDB3FEB1EFBF98BD8C7
:100E80009BBBAB9ABB754A545A376A167AF10AD0A3
:100E90001AB32A923A2EFD0FED6CDD4DCDAABD8B13
:100EA000ADE89DC98D267C076C645C454CA23C83F3
:100EB0002CE01CC10C1FEF3EFF5DCF7CDF9BAFBA67
:100EC000BFD98FF89F176E367E554E745E932EB243
:100ED0003ED10EF01E202020435443204475706CF8
:100EE000696361746F722020200020202020202060
:100EF0002020202020202020202020202020002D05
:100F00002D20486561746572205370656369616C5A
:100F1000202D2D0041546D6567612032353630003B
:100F20005361696C666973682076372E37204D4FA0
:100F300044004163633A20202020202020202020EC
:100F4000202020202020002F20202043004320208C
:100F5000202000200054686973206D656E75206341
:100F6000616E206D616B6500796F757220626F74C0
:100F700020696E6F70657261626C652E00507265DB
:100F8000737320555020746F2070726F63656564B1
:100F90002E00536176696E672E2E2E005344206317
:100FA000617264207772697465206661696C65643A
:100FB00000656570726F6D5F64756D702E62696E2D
:100FC0002066696C65616C72656164792065786919
:100FD00073747300526573746F72696E672E2E2E70
:100FE0000052656164206661696C65643B2045451B
:100FF00050524F4D206D617920626520636F72728F
:1010000075707400656570726F6D5F64756D702EBC
:1010100062696E2066696C656E6F7420666F756EAE
:10102000640045726173696E672E2E2E002A20506F
:1010300072657373200078206D6F72652100202027
:10104000202000010049033600FF006B00D100A002
:1010500000B800D500A6000A0199003F018E007477
:10106000018400A9017C00DE01740013026C0048B9
:101070000265007D025D00B2025600E7024E001CD0
:1010800003460051033D0086033200BB032200F0FB
:10109000030300FF030000D0FEC0FF18FFD0FF6372
:1010A000FFE0FFB1FFF0FF0000000052001000A4BD
:1010B000002000F80030004D014000A2015000F770
:1010C0000160004C027000A0028000F30290004515
:1010D00003A0009703B000E903C0003B04D0008DDB
:1010E00004E000E004F0003305000187051001DB97
:1010F00005200130063001DA065001456C6170733D
:1011000065643A20202020203030306830306D0077
:1011100020736563730054696D65204C6566743A8D
:101120002020203030306830306D005A506F733AD4
:1011300020202020202020202020202020202000CF
:10114000546573743A2000546F6C6572616E636508
:101150000053746172742044656C61790043616C62
:101160006962726174696F6E005053746F702053BE
:10117000657474696E677300557365203020666FFF
:101180007220756E6C696D69746564004D617820BC
:101190005A2050726F6265204869747300417574FB
:1011A0006F2D6C6576656C2020302E303030206DD0
:1011B0006D004175746F2D6C6576656C20696E618C
:1011C000637469766520004175746F2D6C65766572
:1011D0006C206661696C65640A496E636F6D706C42
:1011E0006574652070726F62696E67004175746F17
:1011F0002D6C6576656C206661696C65640A426178
:10120000642070726F62696E6720706F696E7473AC
:10121000004175746F2D6C6576656C206661696C34
:1012200065640A546F6F20666172206F7574206F59
:1012300066206C6576656C006265747765656E2006
:1012400070726F6265207074732E004D6178206833
:1012500065696768742076617269616E63650041D3
:1012600075746F2D6C6576656C2056617269616E60
:10127000636500457261736520456570726F6D002E
:101280005344202D3E20456570726F6D004565709A
:10129000726F6D202D3E20534400456570726F6D56
:1012A000005072696E742054696D653A2020206880
:1012B0002030306D004C617374205072696E743A46
:1012C00020202020682030306D004C6966657469EC
:1012D0006D653A202020202020682030306D00529B
:1012E0006573756D696E6720706F736974696F6E71
:1012F0002E2E2E00436C656172696E6720627569DF
:101300006C642E2E2E20202000447261696E696E5E
:101310006720706970656C696E652E2E2E004C65B5
:101320006176696E672070617573652E2E2E2020A0
:1013300020200043616E63656C6C696E672070727B
:10134000696E742E2E2E2000456E746572696E676C
:101350002070617573652E2E2E202020004C696E42
:10136000653A20202020313030303030303030307D
:101370002B005061757365206174205A506F733A69
:101380002000506C6174666F726D2054656D703A08
:10139000202020004C6566742054656D703A200052
:1013A00052696768742054656D703A2000546F6FFD
:1013B0006C68656164204F666673657473002054C1
:1013C0006F6F6C68656164204F66667365743A0080
:1013D000204F66667365743A0055702F446E2F4C2B
:1013E0006566742F4D20746F205365740055702FFF
:1013F000446E2F522F4C2F4D20746F205365740074
:1014000050726F66696C65204E616D653A0053617C
:10141000766520546F2050726F66696C6500436872
:10142000616E6765204E616D6500446973706C6123
:101430007920436F6E66696700526573746F7265D9
:101440000052657365743A2070726573732043456A
:101450004E5445520046696C2E20547269703A0011
:1014600046696C616D656E743A00547269703A0039
:101470004C6966653A0046696C616D656E74204F13
:10148000646F6D6574657200486561746572732080
:101490004F66660043616E63656C205072696E74BE
:1014A000005072696E742053746174697374696357
:1014B00073004261636B20746F204D6F6E69746FAF
:1014C00072004C696E653A202020202020202020C8
:1014D000202020202020006D006D6D00486F6D657C
:1014E000204F6666736574730050726F66696C6531
:1014F000730046696C616D656E743A20202020206F
:1015000020302E306D6D0046696C616D656E743AE9
:10151000005A506F736974696F6E3A005072696E49
:10152000742054696D653A20202020206820206DA9
:101530000054656D706572617475726520726561C5
:1015400064732020206F7574206F662072616E674F
:10155000652E20202020202020436865636B2077A3
:101560006972696E672E0054656D7065726174757D
:101570007265207265616473202020617265206647
:1015800061696C696E672E20202020202020204376
:101590006865636B20776972696E672E0054656DAC
:1015A00070657261747572652064726F7070696EB7
:1015B00067436865636B20776972696E672E004EBA
:1015C0006F742068656174696E672070726F7065F2
:1015D000726C79436865636B20776972696E672EF8
:1015E0000054656D70206C696D697420726561636B
:1015F0006865642E2053687574646F776E206F720F
:1016000020726573746172742E00456E636C6F7323
:10161000757265204661696C7572652120200050E5
:101620006C6174666F726D204661696C75726521BC
:1016300020202000546F6F6C2031204661696C754A
:10164000726521202020202000546F6F6C203020F4
:101650004661696C75726521202020202000457844
:10166000747275646572204661696C7572652120BB
:101670002020004865617465727320736875746416
:101680006F776E20647565746F20696E616374692D
:1016900076697479004D792074656D706572617436
:1016A0007572652077617320206368616E67656479
:1016B0002065787465726E616C6C792E205265734A
:1016C000656C6563742066696C616D656E7420205D
:1016D000206D656E7520746F20747279206167616A
:1016E000696E2E0077616974696E67200020204E54
:1016F0004120202020006572726F72210028436112
:101700006E6E6F74205072696E7420436F70792909
:10171000005072696E7420416E6F74686572204368
:101720006F7079004D61696E204D656E7500556E64
:101730005377617020546F6F6C686561647320200B
:1017400020005377617020546F6F6C68656164731B
:10175000202020202000446F6E7420486561742092
:10176000456E636C6F7375726500486561742045E2
:101770006E636C6F737572652020202020005365A6
:101780007420436F6F6C696E672046616E204F4610
:10179000460053657420436F6F6C696E6720466125
:1017A0006E204F4E20004368616E67652054656D62
:1017B0007065726174757265004368616E6765205B
:1017C0005370656564005061757365206174205ABB
:1017D000506F7300446974746F205072696E74693D
:1017E0006E67004E2F4100502D53746F7020436F71
:1017F0006E74726F6C00436865636B2053442052B3
:101800006561647300457874727564657220486F11
:101810006C64005061757365207769746820486551
:101820006174004F76657272696465204763546520
:101830006D700043484520456E636C6F737572652B
:101840000048425020696E7374616C6C656400419D
:101850006363656C65726174696F6E004578697465
:10186000204D656E7500536F756E64004578747217
:101870007564657220436F756E7400426F742053F7
:101880007461746973746963730043616C69627233
:10189000617465204E6F7A7A6C657300526573745B
:1018A0006F72652053657474696E67730047656E67
:1018B0006572616C2053657474696E677300507251
:1018C00065686561742053657474696E6773004C54
:1018D0006576656C204275696C6420506C61746536
:1018E00000456E61626C652053746570706572733B
:1018F00020200044697361626C65205374657070C8
:101900006572730056657273696F6E20496E666FFB
:10191000726D6174696F6E0046696C616D656E749D
:10192000204C6F6164696E6700486F6D6520417877
:101930006573004A6F67204D6F6465004D6F6E6977
:10194000746F72204D6F6465005574696C697469B9
:1019500065730050726568656174005072696E74D9
:101960002066726F6D20534400492074696D656470
:10197000206F7574207768696C652020206174740D
:10198000656D7074696E6720746F2068656174207E
:10199000206D7920706C6174666F726D2E00492025
:1019A00074696D6564206F7574207768696C652053
:1019B0002020617474656D7074696E6720746F2087
:1019C0006865617420206D7920657874727564652E
:1019D000722E00556E61626C6520746F20726561B5
:1019E000642053442020206361726420706172740B
:1019F0006974696F6E73206F766572324742206931
:101A00006E2073697A652E2020466F726D61746155
:101A100073204641542D3136206F72202D33322EE3
:101A200000556E61626C6520746F20726561642080
:101A300074686973205344206361726420666F7216
:101A40006D61742E2020202020466F726D617420FD
:101A50006173204641542D3136206F722046415427
:101A60002D33322E0053442063617264207265610D
:101A700064206572726F722E20546F6F206D616EDC
:101A80007920435243206572726F72732E426164F3
:101A9000206361726420636F6E7461637473206F7E
:101AA00072656C656374726963616C206E6F6973D3
:101AB000652E005344206361726420726561642066
:101AC0006572726F720053442063617264206E6F9E
:101AD000742070726573656E740053442063617284
:101AE0006420697320656D7074790043616E6E6F58
:101AF00074206F70656E207468652066696C65007F
:101B00005344206361726420726561647320617262
:101B1000652020206E6F7420676F696E672077657F
:101B20006C6C2E202054727961206469666665723F
:101B3000656E7420636172640049276D20616C7268
:101B400065616479206275696C64696E6700436FD2
:101B50006C6420506175736500556E7061757365B6
:101B600000506175736520200043616E63656C20D1
:101B70006C6F61642F756E6C6F61643F0043616EC2
:101B800063656C2074686973207072696E743F00BD
:101B900073657474696E67733F00526573746F7216
:101BA0006520666163746F727900456E636C6F7354
:101BB0007572652020202020202020202000506CDD
:101BC0006174666F726D202020202020202020204C
:101BD00020004C65667420457874727564657220C7
:101BE0002020202020005269676874204578747294
:101BF0007564657220202020200045787472756419
:101C000065722020202020202020202020005072DB
:101C1000657373206C65667420746F2063616E63F6
:101C2000656C0045787472756465723A2020202DC9
:101C30002D2D2F2D2D2D4300456E636C6F73757206
:101C4000653A20202D2D2D2F2D2D2D4300506C6118
:101C500074666F726D3A2020202D2D2D2F2D2D2D85
:101C600043004C2045787472756465723A202D2DBE
:101C70002D2F2D2D2D4300522045787472756465EB
:101C8000723A202D2D2D2F2D2D2D4300202D2D2569
:101C90000048656174696E673A202020202020206A
:101CA00020202020200048656174696E673A00207A
:101CB0003C2D592020284D656E752920202020209C
:101CC00020202000203C2D582020284D656E7529AD
:101CD00020205A2D3E2020200020202020202020BF
:101CE00020582D20202020202020202020002020CF
:101CF00020202020284D656E75292020592D3E205A
:101D00002020002020202020202020582B202020B0
:101D1000202020202020200020202020204A6F6723
:101D2000206D6F64652020202020202000556E6CDF
:101D30006F6164206C65667400556E6C6F61642021
:101D4000726967687400556E6C6F6164004C6F61F6
:101D500064004C6F6164206C656674004C6F616454
:101D60002072696768740035206D696E757465202E
:101D700074696D656F757420686173656C617073EB
:101D800065642E202050726573732074686520632B
:101D9000656E74657220627574746F6E20746F2046
:101DA00020202066696E6973682E00426567696E3F
:101DB000206C6F6164696E67206F7220202020752F
:101DC0006E6C6F6164696E672E205072657373204C
:101DD00074686563656E74657220627574746F6E85
:101DE000207768656E202066696E69736865642E69
:101DF0000045787472756465727320617265206E37
:101E00006F7420202068656174696E672E202043FE
:101E10006865636B2074686520776972696E672EE8
:101E200000592041786973204C696E650058204143
:101E3000786973204C696E6500594553004E4F20F8
:101E400000446F6E650053656C6563742062657352
:101E500074206C696E65733A0045787472756465B8
:101E60007200456E636C6F7375726500506C6174BF
:101E7000666F726D005475726E204865617465728C
:101E800073204F4646005374617274205072656827
:101E9000656174696E670046726565205352414DF5
:101EA00020004F4646004F4E20000D9471000D94C7
:101EB0000F020D94E4000D941A02CB36B83A914209
:101EC0000543BC4E7350F453E4587B6D46827C85C9
:101ED000B2912C9323946E951E9607B2F6B22BBA4C
:101EE00032BAC8BA6EBB08BCF4BD69C2AEC26BC51B
:101EF00058C95FC9E7F8AFFC39FD5AFE550F590FB5
:101F0000570F5B0FEAE9FEE185EC91E201C0819396
:101F1000EF3FF907E0F3D9F311241FBECFEFD1E271
:101F2000DEBFCDBF00E00CBF17E0A0E0B2E0E4E709
:101F3000FFE002E00BBF02C007900D92AC34B10786
:101F4000D9F71EE1ACE4B7E001C01D92AA39B10790
:101F5000E1F71EE1C4E0DFE100E006C022970109DD
:101F6000FE010BBF0F940A07CA3BD10780E00807A8
:101F7000A9F70E94EC420D94B8070C940000A0E36E
:101F8000B0E0E5ECFFE00D94D506298F3A8F4B8F3A
:101F90005C8F6D8F7E8F8F8F98A3A98ABA8ACB8A28
:101FA000DC8AED8AFE8A0F8B188F098D1A8D2B8D96
:101FB0003C8D09A31AA32BA33CA3680179018FEFE1
:101FC0009FEFA0E0B0E0C822D922EA22FB228901DB
:101FD0002227332709A71AA72BA73CA709891A8903
:101FE0002B893C890DA31EA32FA338A748015901B3
:101FF00088229922AA22BB22290166247724C501BE
:10200000B401A70196010F9444066DA77EA78FA780
:1020100098ABC301B2010F9444066B017C01C5016A
:10202000B40129A53AA54BA55CA50F9444064B0124
:102030005C01C301B2010F944406AB01BC01C80CA2
:10204000D91CEA1CFB1C0DA51EA52FA538A9C9018A
:10205000AA27BB27C80ED91EEA1EFB1EC814D90426
:10206000EA04FB0420F4405050406F4F7F4FC701FB
:10207000AA27BB27840F951FA61FB71F8D839E839A
:10208000AF83B8877601DD24CC244DA55EA56FA56E
:1020900078A960707070C40ED51EE61EF71EC98246
:1020A000DA82EB82FC821C2D0A818B804C808D872A
:1020B0008E818E878F818F878885888B2D893E8939
:1020C0004F89588D69A17AA18BA19CA10F944406D8
:1020D0006B017C012D8D3E8D4F8D58A16DA17EA190
:1020E0008FA198A50F944406DC01CB01C80ED91E20
:1020F000EA1EFB1E8D859E85AF85B8898C0D9D1DC2
:10210000AE1DBF1D8D879E87AF87B88B682F7E85DC
:10211000212F302F482D542D8F859889E096E0E1AE
:102120000D94F106CF92DF92EF92FF920F93CF932F
:10213000DF93CDB7DEB760970FB6F894DEBF0FBE62
:10214000CDBF002309F45AC029873A874B875C87A3
:102150006D877E878F87988B80E2801B4D855E859B
:102160006F8578891816B4F01D821E821F8218862A
:10217000992787FD9095909581959F4F04C07695FE
:102180006795579547958A95D2F749835A836B830C
:102190007C832CC06A017B01002E04C0F694E79476
:1021A000D794C7940A94D2F7CD82DE82EF82F88664
:1021B0006A017B0104C0CC0CDD1CEE1CFF1C8A955F
:1021C000D2F7D701C60149855A856B857C8504C045
:1021D00076956795579547950A95D2F7842B952B59
:1021E000A62BB72B89839A83AB83BC8329813A8141
:1021F0004B815C816D817E818F81988560960FB661
:10220000F894DEBF0FBECDBFDF91CF910F91FF904D
:10221000EF90DF90CF900895CF92DF92EF92FF92F0
:102220000F93CF93DF93CDB7DEB760970FB6F894D7
:10223000DEBF0FBECDBF002309F45AC029873A87FD
:102240004B875C876D877E878F87988B80E2801BAA
:1022500049855A856B857C851816B4F019821A82D7
:102260001B821C82992787FD9095909581959F4FA1
:1022700004C0440F551F661F771F8A95D2F74D8300
:102280005E836F8378872CC06A017B01002E04C0B7
:10229000CC0CDD1CEE1CFF1C0A94D2F7C982DA823A
:1022A000EB82FC826A017B0104C0F694E794D79428
:1022B000C7948A95D2F7D701C6014D855E856F8593
:1022C000788904C0440F551F661F771F0A95D2F7FF
:1022D000842B952BA62BB72B8D839E83AF83B8873A
:1022E00029813A814B815C816D817E818F819885C6
:1022F00060960FB6F894DEBF0FBECDBFDF91CF91D1
:102300000F91FF90EF90DF90CF9008950F93CF93B0
:10231000DF93CDB7DEB760970FB6F894DEBF0FBE80
:10232000CDBF002309F456C029873A874B875C87C5
:102330006D877E878F87988B20E2201B8D859E85F9
:10234000AF85B889AC01BD011216B4F0770F440B0C
:10235000542FBA014D835E836F837887332727FD1F
:102360003095309521953F4F04C0B595A795979529
:1023700087952A95D2F722C0002E04C075956795DF
:10238000579547950A94D2F74D835E836F8378877C
:1023900004C0880F991FAA1FBB1F2A95D2F7498531
:1023A0005A856B857C8504C07695679557954795CA
:1023B0000A95D2F7842B952BA62BB72B89839A836A
:1023C000AB83BC8329813A814B815C816D817E81A5
:1023D0008F81988560960FB6F894DEBF0FBECDBF93
:1023E000DF91CF910F910895A8E4B0E0EAEFF1E119
:1023F0000D94D406F50129A33AA34BA35CA36DA3C6
:102400007EA38FA398A7A98EFA8FCB8EDC8EED8E3C
:10241000FE8E0F8F18A38DA09EA0AFA0B8A4B7FE0C
:1024200067C02195B1E0121608F0B0E03195A1E047
:10243000131608F0A0E0B32EBB1ABB2D882483949A
:102440003B1508F08824A829419531E0141608F0BE
:1024500030E0B42EBA1AAB2D882483944B1508F0C3
:1024600088243829519541E0151608F040E0452EA2
:10247000431A31E0541508F030E0432B619531E008
:10248000161608F030E0862E841A41E0681508F030
:1024900040E0342B719541E0171608F040E0572FCB
:1024A000531B31E0751708F030E0432B819531E084
:1024B000181608F030E0682F641B462F61E084177F
:1024C00008F060E0362B9195931B29A3BAA3ABA328
:1024D0004CA28DA25EA34FA398A78FEF9FEFAFEF03
:1024E000BFEF25968CAF9DAFAEAFBFAF259706C0AF
:1024F00025961CAE1DAE1EAE1FAE25978D8D9E8DF2
:10250000AF8DB8A1B7FF68C025962CAD3DAD4EADDF
:102510005FAD2597209530954095509525962CAF29
:102520003DAF4EAF5FAF2597E19581E01E1608F0F5
:1025300080E0F19591E01F1608F090E04F2F481BC6
:1025400081E0F41708F080E0982BC19481E01C141E
:1025500008F080E06C2D691B91E0C61608F090E051
:10256000892BD19491E01D1408F090E05D2D581B4B
:1025700081E0D51608F080E0982BE19481E01E14EC
:1025800008F080E03E2D391B91E0E31608F090E062
:10259000892BF19491E01F1408F090E02F2D281B57
:1025A00081E0F21608F080E0982B019581E010168A
:1025B00008F080E0702F791B972F71E0091708F061
:1025C00070E0872B1195181BE98F4A8F6B8F5C8FFA
:1025D0003D8F2E8F9F8F18A3798D6A8D5B8D4C8DCB
:1025E0003D8D2E8D9F8D88A1E9A1E98BEAA1EA8B13
:1025F000EBA1EB8BECA1EC8BEDA1ED8BEEA1EE8BC7
:10260000EFA1EF8BE8A5E88F79876A875B874C8716
:102610003D872E879F87888B89849A84AB84BC846E
:102620008D859E85AF85B889E988FA880B891C89D4
:10263000EDAAFEAA0FAB18AFCD88DE88EF88F88C24
:102640000097A105B10509F0BFC3C814D904EA0475
:10265000FB0408F04EC100E0801600E0900601E0A7
:10266000A00600E0B00660F41FEF81169104A104FB
:10267000B10409F098F480E090E0A0E0B0E017C069
:1026800020E0821620E0920620E0A20621E0B206B9
:1026900050F480E190E0A0E0B0E009C088E090E074
:1026A000A0E0B0E004C088E190E0A0E0B0E0B501B7
:1026B000A401082E04C076956795579547950A940E
:1026C000D2F7FA01E357FD4F208140E250E060E08D
:1026D00070E0481B590B6A0B7B0B421B51096109C7
:1026E00071094115510561057105A1F1042E04C060
:1026F000880C991CAA1CBB1C0A94D2F7970186016E
:10270000042E04C0000F111F221F331F0A94D2F79A
:1027100080E290E0841B950BCDA8DEA8EFA8F8AC72
:1027200004C0F694E794D794C7948A95D2F7C02A48
:10273000D12AE22AF32A0DA91EA92FA938AD04C077
:10274000000F111F221F331F4A95D2F70DAB1EAB8E
:102750002FAB38AF250166247724950184012070C2
:10276000307009AB1AAB2BAB3CABC701B601A30170
:1027700092010F9496062DA73EA74FA758AB69A7C5
:102780007AA78BA79CA7C701B601A30192010F945A
:102790009606CA01B90129A93AA94BA95CA90F94C7
:1027A0004406AB01BC0109A51AA52BA53CA57801DF
:1027B000DD24CC240DA91EA92FA938ADC901AA2753
:1027C000BB27C82AD92AEA2AFB2A0DA51EA52FA5B0
:1027D00038A9C416D506E606F70638F501501040AC
:1027E0002040304009A71AA72BA73CA7C80CD91C2A
:1027F000EA1CFB1CC814D904EA04FB04D0F0C4167C
:10280000D506E606F706A8F40DA51EA52FA538A93E
:10281000025010402040304009A71AA72BA73CA720
:10282000C80CD91CEA1CFB1C04C009A71AA72BA7BB
:102830003CA7C41AD50AE60AF70AC701B601A301E4
:1028400092010F9496062DA73EA74FA758AB69AFEC
:102850007AAF8BAF9CAFC701B601A30192010F9471
:102860009606CA01B90129A93AA94BA95CA90F94F6
:1028700044066B017C0149AD5AAD6BAD7CAD9A014C
:10288000112700274DA95EA96FA978AD60707070FF
:10289000042B152B262B372B8DA59EA5AFA5B8A9EC
:1028A0000C151D052E053F05C0F40197A109B109BE
:1028B000080D191D2A1D3B1D081519052A053B0584
:1028C00060F00C151D052E053F0538F48DA59EA55D
:1028D000AFA5B8A90297A109B10909A51AA52BA509
:1028E0003CA57801DD24CC24C82AD92AEA2AFB2A6F
:1028F000B9C481149104A104B10451F461E070E001
:1029000080E090E0A50194010F94960649015A01D8
:1029100010E0811610E0910611E0A10610E0B1066A
:1029200060F42FEF82169104A104B10409F098F429
:1029300080E090E0A0E0B0E017C030E0831630E027
:10294000930630E0A30631E0B30650F480E190E056
:10295000A0E0B0E009C088E090E0A0E0B0E004C0F2
:1029600088E190E0A0E0B0E0B501A401082E04C029
:1029700076956795579547950A94D2F7FA01E357EC
:10298000FD4F2081AC01BD01420F511D611D711D24
:1029900080E290E0A0E0B0E0841B950BA60BB70BA3
:1029A00051F4C818D908EA08FB08F1E04F2E512C61
:1029B000612C712C28C1082E04C0880C991CAA1CFB
:1029C000BB1C0A94D2F797018601042E04C03695E9
:1029D0002795179507950A94D2F709AB1AAB2BAB3D
:1029E0003CAB97018601082E04C0000F111F221F67
:1029F000331F0A94D2F70DA71EA72FA738ABEDA857
:102A0000FEA80FA918AD04C016950795F794E79492
:102A10004A95D2F7B801A7010DA51EA52FA538A983
:102A2000042B152B262B372B0DA71EA72FA738AB52
:102A3000EDA8FEA80FA918AD04C0EE0CFF1C001FE6
:102A4000111F8A95D2F7EDAAFEAA0FAB18AF250188
:102A500066247724950184012070307009AF1AAF85
:102A60002BAF3CAF69A97AA98BA99CA9A3019201BC
:102A70000F94960629A73AA74BA75CA76B017C0188
:102A800069A97AA98BA99CA9A30192010F94960622
:102A9000CA01B90129AD3AAD4BAD5CAD0F94440606
:102AA000AB01BC017601DD24CC240DA51EA52FA50C
:102AB00038A9C901AA27BB27C82AD92AEA2AFB2A8A
:102AC00009A51AA52BA53CA5C416D506E606F7064A
:102AD00038F5015010402040304009AB1AAB2BAB09
:102AE0003CABC80CD91CEA1CFB1CC814D904EA0472
:102AF000FB04D0F0C416D506E606F706A8F409A52F
:102B00001AA52BA53CA5025010402040304009AB2F
:102B10001AAB2BAB3CABC80CD91CEA1CFB1C04C089
:102B200009AB1AAB2BAB3CABC41AD50AE60AF70AC1
:102B3000C701B601A30192010F94960629A73AA7EF
:102B40004BA75CA721966CAF7DAF8EAF9FAF21974F
:102B5000C701B601A30192010F949606CA01B901FB
:102B600029AD3AAD4BAD5CAD0F9444068B019C0191
:102B700021964CAD5DAD6EAD7FAD2197DA01992701
:102B800088274DA55EA56FA578A960707070842B0D
:102B9000952BA62BB72B49A55AA56BA57CA580170D
:102BA0009107A207B307F0F44150504060407040D5
:102BB000880D991DAA1DBB1D88159905AA05BB0581
:102BC00088F080179107A207B30760F449A55AA5BA
:102BD0006BA57CA54250504060407040880D991D07
:102BE000AA1DBB1D6C017D01C01AD10AE20AF30ABD
:102BF00009A91AA92BA93CA9380155244424442A1F
:102C0000552A662A772A8501222733270DA71EA772
:102C10002FA738AB950184012070307009AF1AAF2F
:102C20002BAF3CAFC701B6012DA53EA54FA558A9B6
:102C30000F94960629A73AA74BA75CA769AB7AAB76
:102C40008BAB9CABC701B6012DA53EA54FA558A9DE
:102C50000F949606CA01B90129AD3AAD4BAD5CADF2
:102C60000F944406AB01BC0109A91AA92BA93CA9E0
:102C70007801DD24CC240DA91EA92FA938ADC901E6
:102C8000AA27BB27C82AD92AEA2AFB2A09A51AA5F6
:102C90002BA53CA5C416D506E606F70638F5015067
:102CA00010402040304009AB1AAB2BAB3CABC80CFA
:102CB000D91CEA1CFB1CC814D904EA04FB04D0F09C
:102CC000C416D506E606F706A8F409A51AA52BA58D
:102CD0003CA5025010402040304009AB1AAB2BAB52
:102CE0003CABC80CD91CEA1CFB1C04C009AB1AABDA
:102CF0002BAB3CABC41AD50AE60AF70AC701B601EA
:102D00002DA53EA54FA558A90F94960629A73AA729
:102D10004BA75CA721966CAF7DAF8EAF9FAF21977D
:102D2000C701B6012DA53EA54FA558A90F9496063B
:102D3000CA01B90129AD3AAD4BAD5CAD0F94440663
:102D40008B019C0121964CAD5DAD6EAD7FAD2197A1
:102D5000DA01992788274DA95EA96FA978AD60701F
:102D60007070842B952BA62BB72B49A55AA56BA564
:102D70007CA580179107A207B307D0F441505040BB
:102D800060407040880D991DAA1DBB1D88159905CE
:102D9000AA05BB0568F080179107A207B30740F4A6
:102DA00049A55AA56BA57CA5425050406040704093
:102DB00009A91AA92BA93CA97801DD24CC24C42A8D
:102DC000D52AE62AF72A51C2C816D906EA06FB0612
:102DD00008F438C2803010E0910711E0A10710E03C
:102DE000B10758F48F3F9105A105B10509F090F4A2
:102DF00000E010E020E030E016C0803020E09207D4
:102E000020E0A20721E0B20750F400E110E020E04A
:102E100030E009C008E010E020E030E004C008E144
:102E200010E020E030E0AC01BD01002E04C076953A
:102E30006795579547950A94D2F7FA01E357FD4FE6
:102E40004081040F111D211D311D40E250E060E062
:102E500070E0401B510B620B730BA1F48C159D05A8
:102E6000AE05BF0508F4F5C1EDA8FEA80FA918AD81
:102E7000442455243201E814F9040A051B0508F01E
:102E8000EBC1E3C1342E2C013D0104C0440C551CA0
:102E9000661C771C4A95D2F7D501C401002E04C0E8
:102EA000B695A795979587950A94D2F7482A592AF7
:102EB0006A2A7B2AA5019401032C04C0220F331F28
:102EC000441F551F0A94D2F729AF3AAF4BAF5CAFFE
:102ED000B701A601002E04C07695679557954795D2
:102EE0000A94D2F749AB5AAB6BAB7CABC701B601C6
:102EF000032C04C0660F771F881F991F0A94D2F70E
:102F00006DA77EA78FA798AB8DA99EA9AFA9B8ADD5
:102F100004C0B695A795979587950A95D2F74DA5C4
:102F20005EA56FA578A9482B592B6A2B7B2B4DA743
:102F30005EA76FA778AB4301AA24BB24930182014B
:102F40002070307021960CAF1DAF2EAF3FAF219790
:102F500069A97AA98BA99CA9A50194010F94960649
:102F600029A73AA74BA75CA76B017C0169A97AA99D
:102F70008BA99CA9A50194010F949606CA01B901D9
:102F800021962CAD3DAD4EAD5FAD21970F9444061B
:102F9000DC01CB017601DD24CC240DA51EA52FA5D7
:102FA00038A9A90166277727C42AD52AE62AF72A4D
:102FB00009A51AA52BA53CA5C816D906EA06FB0645
:102FC00038F5015010402040304009AB1AAB2BAB14
:102FD0003CABC40CD51CE61CF71CC414D504E60499
:102FE000F704D0F0C816D906EA06FB06A8F409A52E
:102FF0001AA52BA53CA5025010402040304009AB3B
:103000001AAB2BAB3CABC40CD51CE61CF71C04C0A4
:1030100009AB1AAB2BAB3CABC81AD90AEA0AFB0ABC
:10302000C701B601A50194010F94960629A73AA7F6
:103030004BA75CA729966CAF7DAF8EAF9FAF29974A
:10304000C701B601A50194010F949606CA01B90102
:1030500021962CAD3DAD4EAD5FAD21970F9444064A
:103060004B015C0129964CAD5DAD6EAD7FAD2997EE
:103070009A01112700278DA59EA5AFA5B8A9A0701C
:10308000B070082B192B2A2B3B2B89A59AA5ABA531
:10309000BCA5081519052A053B05E0F40197A1090F
:1030A000B109040D151D261D371D0415150526052E
:1030B000370580F0081519052A053B0558F489A540
:1030C0009AA5ABA5BCA50297A109B109040D151DD0
:1030D000261D371DB901A801481959096A097B093C
:1030E0004DA75EA76FA778AB09A91AA92BA93CA980
:1030F0007801DD24CC24C82AD92AEA2AFB2AFFEF4A
:103100008F2EFFEF9F2EA12CB12C8C209D20AE2066
:10311000BF2087012227332709A71AA72BA73CA77F
:1031200049AC5AAC6BAC7CAC2FEF3FEF40E050E0C9
:10313000422253226422752229AD3AAD4BAD5CADDB
:103140008A012227332709AB1AAB2BAB3CABC50155
:10315000B401A30192010F94440669AF7AAF8BAF1B
:103160009CAFC501B40129A93AA94BA95CA90F9448
:1031700044064B015C0169A57AA58BA59CA5A3011A
:1031800092010F9444062B013C0169A57AA58BA5F9
:103190009CA529A93AA94BA95CA90F944406AB01A7
:1031A000BC01840C951CA61CB71C09AD1AAD2BAD37
:1031B0003CADC901AA27BB27880E991EAA1EBB1EBB
:1031C00084149504A604B70420F4405050406F4F77
:1031D0007F4FC501AA27BB27840F951FA61FB71FC6
:1031E0000DA51EA52FA538A9081719072A073B0703
:1031F00018F180179107A207B307A1F5540199248C
:10320000882489AD9AADABADBCADA070B070880E0E
:10321000991EAA1EBB1E4DA95EA96FA978AD032CED
:1032200004C0440F551F661F771F0A94D2F7481534
:1032300059056A057B05B0F40894C108D108E10876
:10324000F10810C0442455243201CC24DD24760139
:103250000CC044245524320181E0C82ED12CE12C2D
:10326000F12C03C0442455243201FE01319688E03C
:10327000DF011D928A95E9F7C982DA82EB82FC822E
:103280004D825E826F8278862C2D3A814B815C81E3
:10329000642D7E818F8198852596ECACFDAC0EADBA
:1032A0001FAD2597E114F1040105110509F456C07D
:1032B0002195E1E0121608F0E0E03195F1E01316F7
:1032C00008F0F0E0032F0E1BE1E0301708F0E0E01B
:1032D000FE2B4195E1E0141608F0E0E0142F1F1BCF
:1032E00031E0411708F030E0E32B5195F1E015167D
:1032F00008F0F0E0B52FBE1B31E05B1708F030E0BE
:10330000F32B6195E1E0161608F0E0E0462E4F1A27
:1033100031E0641508F030E0E32B7195F1E0171609
:1033200008F0F0E0A72FAE1B31E07A1708F030E08C
:10333000F32B8195E1E0181608F0E0E0F82EFF1A73
:10334000FF2D31E08F1508F030E0E32B9195302F01
:10335000412F5B2F642D7A2F8F2F9E1BC85BDF4F71
:10336000E1E10D94F006FA01DC0102C005900D9236
:1033700021503040D8F708958091BC09882361F42A
:103380008091BB098F5F8093BB09853028F081E075
:103390008093BC091092CB09089581E00E94B64841
:1033A00080E00C949848F9DF8FEF60E00E947F8DF9
:1033B0001092B4071092B3071092B6071092B50797
:1033C0001092B9071092BA070C94103F90916707BA
:1033D000981781F1809367078091B007813019F4C5
:1033E0001092B00703C081E08093B00780916C0712
:1033F00090916D0720916E0730916F0730936D07A4
:1034000020936C0790936F0780936E0780918007DD
:103410009091810720918207309183073093810733
:103420002093800790938307809382078091B00751
:103430000C94DB8D0895F8942091B3073091B40774
:103440008091B1079091B207821B930B78940895F5
:103450000F931F93CF93DF93EC018B0185E89AE0E4
:103460000E9409EB1092880A1092890A85E89AE076
:10347000BE010E94DBEA85E89AE0B8010E94DBEA1F
:10348000E091190BFF27E7FDF095EE0FFF1FE55FB9
:10349000F44F808191812AE08538920739F08FEFCF
:1034A0009AE065E87AE00E94FFC202C00E9450EBF9
:1034B00081E08093E40ADF91CF911F910F910895ED
:1034C0001092E40AE091190BFF27E7FDF095EE0F4B
:1034D000FF1FE55FF44F808191812AE085389207D4
:1034E00021F48FEF9AE00E94AEC3E091190BFF2701
:1034F000E7FDF095EE0FFF1FE55FF44F80819181AE
:10350000DC01ED91FC910480F581E02D1995089581
:1035100080918F030895CF92DF92EF92FF920F93E5
:103520001F93CF93DF93CDB7DEB7A0970FB6F89474
:10353000DEBF0FBECDBF8C018091BE09882309F488
:103540007BC0CE010D960E946587C80160E070E0E7
:103550000E94D350FC01C080D180E280F380CE0174
:103560000D9660E070E00E94D350FC018081918153
:10357000A281B381C81AD90AEA0AFB0AC982DA828F
:10358000EB82FC82C80161E070E00E94D350FC0134
:10359000C080D180E280F380CE010D9661E070E0C2
:1035A0000E94D350FC0180819181A281B381C81A0D
:1035B000D90AEA0AFB0ACD82DE82EF82F886C801C8
:1035C00062E070E00E94D350FC01C080D180E280B4
:1035D000F380CE010D9662E070E00E94D350FC01B2
:1035E00080819181A281B381C81AD90AEA0AFB0AB3
:1035F000C986DA86EB86FC8689819A81AB81BC819B
:103600000097A105B10569F48D819E81AF81B885D0
:103610000097A105B10529F4C114D104E104F10416
:1036200059F08091BE0983FF05C0CE0101960E942A
:10363000A35402C01092BE09A0960FB6F894DEBF44
:103640000FBECDBFDF91CF911F910F91FF90EF90F3
:10365000DF90CF900895109288070895882311F085
:1036600080E401C080E88093AF076093BF091092A7
:10367000BD09089581E08093AE0708958091AF075A
:10368000181634F48091BF09882321F082E0089550
:1036900080E0089581E008958091AF07089581E06A
:1036A0009091AF07923008F480E00895CF93DF93B4
:1036B000CDB7DEB764970FB6F894DEBF0FBECDBFAF
:1036C000DC01CB018093AA079093AB07A093AC07D2
:1036D000B093AD07CE0101960E946587CE01019699
:1036E00062E070E00E94CB504091AA075091AB0776
:1036F0006091AC077091AD07FC0180819181A2813E
:10370000B38184179507A607B7071CF01092A90785
:1037100003C081E08093A90764960FB6F894DEBFDA
:103720000FBECDBFDF91CF9108950F931F930091EE
:10373000AA071091AB072091AC073091AD07B801F3
:10374000C9011F910F9108952091B3073091B407DB
:1037500081E02115310509F080E00895482F80911E
:10376000B3079091B4076091B1077091B2078617C3
:103770009707E8F42091B3073091B4078091B5071B
:103780009091B607820F931F0F946F06E091B707D1
:10379000F091B807E80FF91F40838091B30790912B
:1037A000B40701969093B4078093B307089581E01E
:1037B000E1EBF7E080870895CF9360E070E080E070
:1037C00090E074DF1092A90710927B0710927C079B
:1037D00010927D0710927E0710927F07C1E0C09380
:1037E0008E031092C0091092AF071092C209109276
:1037F000C1091092BF091092A1071092A20710925E
:10380000A3071092A4071092A5071092A607109282
:10381000A7071092A807E9E9F7E01092990711822B
:1038200012821382148215821682178210929107D7
:103830001092920710929307109294071092950796
:10384000109296071092970710929807E9E8F7E010
:1038500010928907118212821382148215821682B5
:1038600017821092C7091092C8091092C9091092C4
:10387000CA091092C3091092C4091092C509109286
:10388000C60982E490E061E00E949DBC823009F0AC
:1038900043C08FEF9FE060E00E949DBC8823E1F170
:1038A000C0937007109276071092770710927807EE
:1038B0001092790710927507109271071092720793
:1038C00010927307109274071092BD091092BB09F1
:1038D0001092BC091092CB0910926D0710926C07E0
:1038E00010926F0710926E07109281071092800756
:1038F000109283071092820710926B0710926A074A
:103900001092690710926807109267071092BE091B
:103910000E94ED54CF91089510927007C3CF4CDFF1
:1039200085E680938F031092B4071092B30710922C
:10393000B6071092B5071092B9071092BA07109205
:103940006607089581E090916607963009F080E05F
:1039500008958091BE0983FF16C090918D0399232D
:1039600091F080916607833071F08091BC098823C3
:1039700051F08091CB098F5F8093CB09981718F491
:1039800081E08093BD0908952F923F924F925F92FC
:103990006F927F928F929F92AF92BF92CF92DF925F
:1039A000EF92FF920F931F93CF93DF93CDB7DEB7C4
:1039B000AB970FB6F894DEBF0FBECDBF382E88236D
:1039C00021F081E08093880705C0809188078823D3
:1039D00009F4FDC08E01095E1F4FC8010E94658772
:1039E00081E089838A832E010894411C511C73E075
:1039F000672E712C86E09CE00BA7212E08C008944E
:103A0000411C511C80E99CE064E0662E712CFC0195
:103A1000ED58FF4F2081FC01222319F020A931A984
:103A200004C0E25AFF4F2081318121153105B1F1E7
:103A300048960E942CC0882389F18BA5922DB30152
:103A40000E94D3508C01FC0180809180A280B380C1
:103A5000F2018081831531F451E0C52ED12CE12C87
:103A6000F12C04C0CC24CA94DC2C760160E070E018
:103A700080E090E4462D0E941C859B01AC01C701AB
:103A8000B6010F944406DC01CB01880D991DAA1DD7
:103A9000BB1DF80180839183A283B383F4E06F168A
:103AA000710409F0ACCF8CEE91E060ED77E00E94FC
:103AB000ADBCBC0180E090E00F9492042091AA1765
:103AC0003091AB174091AC175091AD170F949805FA
:103AD0009B01AC0160E074E284E799E40F94BF03BA
:103AE0000F946104C62EF72EE82ED92E8091700710
:103AF000882339F18091B007882361F4CE0147967D
:103B000064E070E00E94D3508C01CE01479663E0E0
:103B100070E00BC0CE01479663E070E00E94D35086
:103B20008C01CE01479664E070E00E94D350FC0106
:103B300080819181A281B381F80180839183A283E6
:103B4000B383CE0147964C2D5F2D6E2D7D2D00E069
:103B500010E020E030E0EE240E94D5883320B9F553
:103B6000CE0103960E946587CE01039663E070E064
:103B70000E94D3508C018CEC99E063E070E00E94CD
:103B8000D350FC0180819181A281B381F8018083AF
:103B90009183A283B383CE01039664E070E00E9418
:103BA000D3508C018CEC99E064E070E00E94D3501B
:103BB000FC0180819181A281B381F801808391838E
:103BC000A283B383CE01039660E00E94B586AB96D4
:103BD0000FB6F894DEBF0FBECDBFDF91CF911F911E
:103BE0000F91FF90EF90DF90CF90BF90AF909F909C
:103BF0008F907F906F905F904F903F902F9008959F
:103C00002F923F924F925F926F927F928F929F92EC
:103C1000AF92BF92CF92DF92EF92FF920F931F93DA
:103C2000CF93DF93CDB7DEB7CD57D0400FB6F89422
:103C3000DEBF0FBECDBF182FCE018F5A9F4F0E94FF
:103C40009650CE01CD960E949650112309F4C8C01B
:103C5000ECE2F7E180E09081992309F481C2DF0171
:103C600011979C91992309F47BC28F5FBD96833095
:103C700091F7DE019996ECECF9E084E101900D9268
:103C80008150E1F7CE0145960E946587CE01899665
:103C900060E070E00E94D3506C0140913117509168
:103CA000321760913317709134178EE090E00E94C4
:103CB000C3BC4B015C0180E00E94D18420E030E075
:103CC00040EA50E40F9498050F946104DC01CB01A5
:103CD000881A990AAA0ABB0AF60180829182A282F6
:103CE000B382CE01899661E070E00E94D3506C01EE
:103CF00040915E1750915F17609160177091611746
:103D000082E190E00E94C3BC4B015C0181E00E9413
:103D1000D18420E030E040EA50E40F9498050F94FD
:103D20006104DC01CB01881A990AAA0ABB0AF601D0
:103D300080829182A282B382CE01899662E070E095
:103D40000E94D35040918B1750918C1760918D1722
:103D500070918E17FC014083518362837383CE017F
:103D6000899663E070E00E94D3504C01CE014596E5
:103D700063E070E00E94D350FC0180819181A281B8
:103D8000B381F40180839183A283B383CE018996AA
:103D900064E070E00E94D3504C01CE01459664E08F
:103DA00070E00E94D350FC0180819181A281B38197
:103DB000F40180839183A283B383CE018B599F4FFB
:103DC000BE01675D7F4F0E947286DE01DD96FE01B7
:103DD000EB59FF4F84E101900D928150E1F767C0EC
:103DE000DE01DD96ECECF9E084E101900D9281506A
:103DF000E1F7CE0145960E946587CE01459660E0C9
:103E000070E00E94D350FC0140805180628073803A
:103E1000CE01459661E070E00E94D350FC01008124
:103E2000118122813381CE01459662E070E0ED96EA
:103E30002FAFED97EE963FAFEE970E94D350FC0167
:103E4000C080D180E280F380CE01CD9663E070E047
:103E50000E94D350FC0180809180A280B380CE016B
:103E6000CD9664E070E00E94D35000D00F92FC0128
:103E700080819181A281B381EDB7FEB78183928366
:103E8000A383B483CE010196B301A201ED962FADB9
:103E9000ED97EE963FADEE970E9497500F900F90E2
:103EA0000F900F90CE01019660E00E94B586609160
:103EB00081177091821780918317909184170F94C6
:103EC000940420E030E040E857E30F9498052091F7
:103ED0007D1730917E1740917F17509180170F9476
:103EE00098050F946104262EEA967FAFEA97EB9629
:103EF0008FAFEB97EC969FAFEC97CE018B599F4F0E
:103F00000E946587DE01AF5ABF4FFE01EB59FF4F9C
:103F100084E101900D928150E1F7CE018F5A9F4FBD
:103F200060E070E00E94D350FC0180809180A2800C
:103F3000B380CE01CD9660E070E00E94D350FC01CA
:103F400080819181A281B381A5019401281B390B45
:103F50004A0B5B0BCA01B9010F94940420912317FB
:103F60003091241740912517509126170F94BF03C5
:103F7000C62E172F082FF92ECE018F5A9F4F61E0C2
:103F800070E00E94D350FC0180809180A280B380B9
:103F9000CE01CD9661E070E00E94D350FC0180819B
:103FA0009181A281B381A5019401281B390B4A0B91
:103FB0005B0BCA01B9010F94940420915017309102
:103FC000511740915217509153170F94BF03462E2B
:103FD000672E582E392ECE018F5A9F4F62E070E027
:103FE0000E94D350FC0180809180A280B380CE01DA
:103FF000CD9662E070E00E94D350FC0180819181F7
:10400000A281B381A5019401281B390B4A0B5B0BDC
:10401000CA01B9010F94940420917D1730917E1745
:1040200040917F17509180170F94BF03762E872EF3
:10403000B82EA92E302F8C2D912FA02FBF2DBC0173
:10404000CD010C2D232F3B2FA90198010F9498052A
:104050006B017C01352D842D962DA52DB32DBC0132
:10406000CD01042D162D232F3B2FA90198010F946C
:1040700098059B01AC01C701B6010F9444036B0185
:104080007C019501872D982DA32FB22FBC01CD0166
:10409000A501072D182D252F342FA90198010F9464
:1040A00098059B01AC01C701B6010F9444030F941E
:1040B000FF057B018C0180917007882339F1809185
:1040C000B007882361F4CE01CD9664E070E00E94D1
:1040D000D3504C01CE01CD9663E070E00BC0CE0111
:1040E000CD9663E070E00E94D3504C01CE01CD9696
:1040F00064E070E00E94D350FC0180819181A28134
:10410000B381F40180839183A283B38370904B18B1
:1041100010924B188090811790908217A09083176F
:10412000B0908417E6E0880C991CAA1CBB1CEA9589
:10413000D1F74501BB2497FCB094AB2CCE01CD96B2
:10414000422DEA965FADEA97EB966FADEB97EC9652
:104150007FADEC9720E064010E946B8A70924B184F
:10416000C358DF4F0FB6F894DEBF0FBECDBFDF914F
:10417000CF911F910F91FF90EF90DF90CF90BF9064
:10418000AF909F908F907F906F905F904F903F90F7
:104190002F9008951F93CF93DF93E82FF0E0A3E0D3
:1041A000EE0FFF1FAA95E1F7E756F84F2081318106
:1041B00042815381648175818681978197FF56C0C2
:1041C0002195E1E0121608F0E0E03195F1E01316D8
:1041D00008F0F0E0132F1E1BE1E0311708F0E0E0DB
:1041E000FE2B4195E1E0141608F0E0E0D42FDF1B30
:1041F00031E04D1708F030E0E32B5195F1E0151652
:1042000008F0F0E0C52FCE1B31E05C1708F030E07D
:10421000F32B6195E1E0161608F0E0E0B62FBF1B26
:1042200031E06B1708F030E0E32B7195F1E01716E1
:1042300008F0F0E0A72FAE1B31E07A1708F030E06D
:10424000F32B8195E1E0181608F0E0E0382F3F1BD2
:10425000F32F31E08F1708F030E0E32B9195312FE9
:104260004D2F5C2F6B2F7A2F8F2F9E1BDF91CF91BD
:104270001F9108957F928F929F92AF92BF92CF929B
:10428000DF92EF92FF920F931F93CF93DF93D82E7D
:1042900081DFC22FC32EB42EA52E962E872E782E08
:1042A000D92F191694F0992309F0A4C0882369F432
:1042B000772359F4662349F4552339F4442329F428
:1042C000332319F4222309F495C0ED2CFF2487E34E
:1042D00090E0E80EF91E13E0EE0CFF1C1A95E1F7D2
:1042E000C70100E010E020E030E040E050E060E096
:1042F00070E00E9474BD022F0C0F11E0021708F04D
:1043000010E0C30E21E0C31608F020E01C0D31E0E0
:104310001C1508F030E0232BB40E31E0B41608F081
:1043200030E02B0D41E02B1508F040E0342BA50EBA
:1043300041E0A51608F040E03A0D51E03A1508F0CA
:1043400050E0452B960E51E0961608F050E0490DCE
:1043500061E0491508F060E0562B870E61E0871692
:1043600008F060E0580D71E0581508F070E0672B18
:10437000780E71E0781608F070E0670D81E067153F
:1043800008F080E0782BD90F7D0FC7010E94CDBDCA
:10439000ED2DF0E0B3E0EE0FFF1FBA95E1F7DF017E
:1043A000A757B84FE756F84F80818C9381811196BB
:1043B0008C931197828112968C9312978381139616
:1043C0008C931397848114968C93149785811596FA
:1043D0008C931597868116968C93169787811796DE
:1043E0008C93179710821182128213821482158285
:1043F00016821782DF91CF911F910F91FF90EF905E
:10440000DF90CF90BF90AF909F908F907F90089556
:1044100080E030DF81E02ECF1F93CF93DF93E82F32
:10442000F0E083E0EE0FFF1F8A95E1F7E757F84FC2
:104430002081318142815381648175818681978198
:1044400097FF56C02195E1E0121608F0E0E03195A3
:10445000F1E0131608F0F0E0132F1E1BE1E0311716
:1044600008F0E0E0FE2B4195E1E0141608F0E0E0F2
:10447000D42FDF1B31E04D1708F030E0E32B5195CE
:10448000F1E0151608F0F0E0C52FCE1B31E05C1707
:1044900008F030E0F32B6195E1E0161608F0E0E05B
:1044A000B62FBF1B31E06B1708F030E0E32B71959E
:1044B000F1E0171608F0F0E0A72FAE1B31E07A17F5
:1044C00008F030E0F32B8195E1E0181608F0E0E009
:1044D000382F3F1BF32F31E08F1708F030E0E32B2C
:1044E0009195312F4D2F5C2F6B2F7A2F8F2F9E1B85
:1044F000DF91CF911F910895CF92DF92EF92FF92BB
:104500001F93CF93DF9380E087DFB901CA0143E0B7
:104510000E94EF846B017C0181E07EDFB901CA015A
:1045200044E00E94EF849B01AC01C701B6010F94E7
:104530004403C62FC72ED82F192F80E02BDEB901D8
:10454000CA0143E00E94EF849B01AC018C2F9C2D9B
:10455000AD2FB12FBC01CD010F944403D62FC72F2F
:10456000C82E192F81E016DEB901CA0144E00E946D
:10457000EF849B01AC01FE018F2F9E2FAC2DB12F3C
:10458000BC01CD010F944403462F572F682F792F7C
:10459000CB01BA01DF91CF911F91FF90EF90DF9097
:1045A000CF9008950F931F93CF93DF93082FCBE7FE
:1045B000D7E010E08881882369F4812F0E94BC8DA8
:1045C0008883812F002319F00E94CB8D03C064E102
:1045D0000E94AF8D1F5F2196153061F7DF91CF915B
:1045E0001F910F9108951F93CF93DF93CBE7D7E0EF
:1045F00010E0812F68810E94AF8D19921F5F1530E6
:10460000C1F7DF91CF911F910895EF92FF921F9311
:10461000CF93DF93C82F4091B5075091B6072091F3
:10462000B1073091B207E090B707F090B8074F5F3D
:104630005F4FCA01B9010F946F06FC01EE0DFF1D1B
:104640001081CF3F09F01C2F80916707882329F044
:1046500081E0113009F480E0182F8091B507909126
:10466000B6070296B9010F946F068E0D9F1DDC01EF
:104670008C918D3009F490C08E3050F48C3008F05D
:1046800071C0843008F045C1833009F040C110C0CA
:10469000873109F45DC0883120F4803108F037C1DA
:1046A00038C18F3109F488C08F3709F030C1DCC0C0
:1046B0008091B5079091B607E091B507F091B607E4
:1046C0000496B9010F946F068E0D9F1DDC014C916D
:1046D0003596CF01B9010F946F068E0D9F1DFC0119
:1046E000F080EE24E40EF11CE114F10411F490DEEC
:1046F00023C0C12FD0E0CC0FDD1FFE01E459F84FDD
:1047000080819181009739F48DEF9FE060E00E94F5
:104710009DBC882389F0C459D84F8881998100971E
:1047200051F4812F90E084559F4F880F991F66EEBA
:1047300070E00E94ADBC7C01113019F480E99CE06E
:1047400002C086E09CE04896B7010E944EBF86C03A
:104750000E943E1B91E0811190E0892F60E00E9451
:104760002B3FD7C0113019F4E0E9FCE002C0E6E0CD
:10477000FCE08091B5079091B6070496B9010F94BB
:104780006F068E0D9F1DDC016C9170E06170707082
:10479000CF010E94F894BDC08091B5079091B607F3
:1047A0000496B9010F946F068E0D9F1DFC01808148
:1047B00081700E949848ADC00E94F739882309F49F
:1047C000A8C08091B5079091B607E091B107F0912C
:1047D000B207C091B707D091B8072091B5073091C3
:1047E000B6070496BF010F946F068C0F9D1FDC0166
:1047F0004C912B5F3F4FC901BF010F946F068C0F87
:104800009D1FFC01F081DF2F20E0C22FC40FD11DBE
:104810002097D1F080916A0790916B07009739F447
:104820008DEF9FE060E00E949DBC882369F080913D
:104830006A0790916B07009731F48CE591E064E68C
:1048400070E00E94ADBCEC0184E39BE0BE010E94DD
:104850004EBF8FE49AE061E00E948E4880919A0DED
:104860008E7F80939A0D55C00E94023A882309F4E6
:1048700050C08091B5079091B607E091B107F091D3
:10488000B207C091B707D091B8072091B507309112
:10489000B6070496BF010F946F068C0F9D1FDC01B5
:1048A0004C912B5F3F4FC901BF010F946F068C0FD6
:1048B0009D1FFC01F081DF2F20E0C22FC40FD11D0E
:1048C0002097D1F08091680790916907009739F49B
:1048D0008DEF9FE060E00E949DBC882369F080918D
:1048E000680790916907009731F48EE59FE062E3D5
:1048F00070E00E94ADBCEC0188EA9BE0BE010E9422
:104900004EBF8FE49AE061E00E949348A7CF80E019
:1049100001C081E0DF91CF911F91FF90EF9008954A
:104920000F931F93CF93DF93CDB7DEB769970FB681
:10493000F894DEBF0FBECDBF8091AF07853409F478
:10494000FBC0863490F48134E9F1823438F480324B
:1049500009F4D6C1803409F000C220C0833409F4C0
:104960004DC0843408F054C037C0843809F492C173
:10497000853850F4813809F45DC1833809F472C177
:10498000803809F0EAC1FAC0863809F49CC186383B
:1049900008F48FC1873809F0E0C19AC10E944B3DED
:1049A000853051F00E944B3D843031F088E493E132
:1049B00069E073E10E94281A81E48093AF0781E0E7
:1049C000F1DDCBC18091B00E9091AF0E891B8F703D
:1049D00009F0C3C182E4BFC1CE0106960E9465877B
:1049E000ACECB9E0FE01369684E101900D92815065
:1049F000E1F781E00E94C41C83E4ADC18091B00E58
:104A00009091AF0E891B8F7009F0A7C184E4A3C1F8
:104A100081E0F6D885E48093AF070E944B3D853056
:104A200031F00E944B3D843011F010E001C011E0E4
:104A3000CE01019662EC7BE145E00E94D5FCCE01FF
:104A400001960E942AFD80937A0780E00E94984890
:104A50008091790C882329F08091360C9091370C45
:104A600004C08091640C9091650C909381078093B1
:104A700080078091030D882329F08091C00C9091CC
:104A8000C10C04C08091EE0C9091EF0C90938307C1
:104A90008093820780918F0B882329F080914C0BA3
:104AA00090914D0B04C080917A0B90917B0B909369
:104AB0008707809386078091030C882329F08091D3
:104AC000C00B9091C10B04C08091EE0B9091EF0B45
:104AD00090938507809384078091BF09882339F4D8
:104AE0008EEF9FE060E00E949DBC882311F40E943D
:104AF000CD198091BF09882321F088EF60E00E94E2
:104B00007F8D6091C1097091C2096115710551F0E5
:104B10008091C009882319F083E393E1C7C088E43A
:104B200093E1C4C0112319F083E393E102C088E448
:104B300093E164EF72E1BAC08091B00E9091AF0E34
:104B4000891B8F7009F009C14EDD8091C00988234F
:104B500011F080E201C081E08093AF070E94601AEB
:104B60000E944B3D853009F4F8C00E944B3D8430D3
:104B700009F4F3C087E00E941E50EFC080E012DD10
:104B80008091860790918707181619066CF484E3C4
:104B90009BE060E00E949DC060918607709187074E
:104BA00084E39BE00E944EBF80918407909185072B
:104BB000181619066CF488EA9BE060E00E949DC01C
:104BC000609184077091850788EA9BE00E944EBF40
:104BD00000916C0710916D070115110521F40091EA
:104BE0008007109181071016110654F48EE19CE0A5
:104BF00060E00E949DC08EE19CE0B8010E944EBF23
:104C000000916E0710916F070115110521F40091B5
:104C10008207109183071016110654F488EA9CE06D
:104C200060E00E949DC088EA9CE0B8010E944EBFEF
:104C300081E891C080918607909187071816190620
:104C40000CF075C084E39BE00E942CC0882309F41B
:104C500084C06DC088EA9BE00E942CC0882309F4C0
:104C60007CC06DC08091800790918107181619064D
:104C70000CF067C08EE19CE00E942CC0882309F4F0
:104C80006CC05FC088EA9CE00E942CC0882309F4B5
:104C900064C05FC081E086DC80E00E94001E85E881
:104CA0008093AF078EE193E16FED72E10E94281AC5
:104CB00054C08091B00E9091AF0E891B8F7009F097
:104CC0004CC086E848C080E00E94C41C87E843C00E
:104CD0008091B00E9091AF0E891B8F7009F03DC08E
:104CE00080917A070E9498487EDC0E94601A109298
:104CF000AF071092C2091092C1091092BD092DC0D0
:104D00000E94601A6091C1097091C2098FE49AE013
:104D100040E021E00E9499470E9418521092C20977
:104D20001092C1091092C0091092AF0716C080916D
:104D3000840790918507181619060CF48BCF83E829
:104D40000AC08091820790918307181619060CF407
:104D500099CF49DC84E88093AF0769960FB6F89441
:104D6000DEBF0FBECDBFDF91CF911F910F91089590
:104D7000CF92DF92EF92FF920F931F93CF93DF9327
:104D8000C0918F03C53609F464C0CC2309F461C017
:104D9000D0917507CD1709F45CC0DD2309F459C023
:104DA00060917107709172078091730790917407F9
:104DB000611571058105910509F44BC00F949204AA
:104DC0006B017C016C2F70E06D1B7109882777FDEA
:104DD0008095982F0F9494049B01AC01C701B601F4
:104DE0000F94BF036B017C016C2F70E080E090E0BA
:104DF0000F9492049B01AC0160E070E088EC92E4B7
:104E00000F9443039B01AC01C701B6010F949805B1
:104E1000D62FC72E082FC92F862F9C2DA02FBC2F31
:104E2000BC01CD0120E030E040E050E00F94BB0336
:104E300087FF04C0D0E0CC2400E0C0E08D2F9C2D83
:104E4000A02FBC2FBC01CD010F9461048B019C01EC
:104E500004C000E010E020E030E0B801C901DF91BB
:104E6000CF911F910F91FF90EF90DF90CF90089519
:104E7000CF93DF93FC0182819381009721F481E03D
:104E8000818780E019C08481958120813181B901B9
:104E90000F946F06C681D781C80FD91F8481958171
:104EA0000196B9010F946F06958384838281938163
:104EB0000197938382838881DF91CF910895EF9248
:104EC000FF921F93CF93DF930F920F92CDB7DEB770
:104ED00041EBE42E47E0F42EC701CADF682FC7017B
:104EE0006A83C6DF782FC7017983C2DF182FC70115
:104EF000BFDF982F6A817981812F0F900F90DF910A
:104F0000CF911F91FF90EF9008951F93CF93DF9360
:104F1000C1EBD7E0CE01ACDF182FCE01A9DF982F6F
:104F2000812FDF91CF911F91089581EB97E0A0CF62
:104F30002F923F924F925F926F927F928F929F92A9
:104F4000AF92BF92CF92DF92EF92FF920F931F9397
:104F5000CF93DF93CDB7DEB7CB5ED0400FB6F894DA
:104F6000DEBF0FBECDBF0E94B651882309F56AC0CF
:104F70002091B3073091B4078091B5079091B6079F
:104F8000820F931F0F946F06E091B707F091B80757
:104F9000E80FF91F40838091B3079091B407019601
:104FA0009093B4078093B30704C01093B90701C06E
:104FB00011E08091B3079091B4072091B10730912F
:104FC000B2072817390711F40C9472360E94075261
:104FD000882311F40C9472360E940A52482F809153
:104FE000B3079091B4076091B1077091B20786172B
:104FF000970708F4BDCFD9CF809190038823D1F0D3
:105000009091AF079923B1F491E09093C00981305A
:1050100019F486EC9AE107C08B3019F485E69AE121
:1050200002C083EB9AE19093C2098093C1090E9468
:10503000D31908C08091C1099091C209009711F459
:105040000E9418520E94D492882309F54CC02091E6
:10505000B3073091B4078091B5079091B607820FDE
:10506000931F0F946F06E091B707F091B807E80F10
:10507000F91F40838091B3079091B40701969093F4
:10508000B4078093B30704C01093B90701C011E0BF
:105090008091B3079091B4072091B1073091B20786
:1050A0002817390711F40C947A360E94E29288236B
:1050B00011F40C947A360E94F092482F8091B30735
:1050C0009091B4076091B1077091B2078617970766
:1050D00008F4BDCFD9CF8091B3079091B407009762
:1050E00011F40E9429938091AA079091AB07A09197
:1050F000AC07B091AD070097A105B10529F18091EA
:10510000A907882309F5CE018F579F4F0E94658715
:10511000CE018F579F4F62E070E00E94CB504091CC
:10512000AA075091AB076091AC077091AD07FC01E5
:1051300080819181A281B38184179507A607B70763
:105140001CF481E08093A9078091AA079091AB0796
:10515000A091AC07B091AD070097A105B10511F47E
:105160000C9482368091A907882311F40C9482361E
:105170000E943E1B882311F00C948236CE01835985
:105180009F4F0E946587CE0183599F4F62E070E078
:105190000E94CB504091AA075091AB076091AC0799
:1051A0007091AD07FC0180819181A281B381841748
:1051B0009507A607B70714F40C94823660E070E0F8
:1051C00080E090E00E94561B81E060E00E942B3F4F
:1051D0000C94B136A5DB0C94B1361130B1F480914A
:1051E000BF09882311F00C94B1368091AE07882353
:1051F00011F00C94B13685EE9AE00F94AB00882341
:1052000011F40C94B1360C948A3680916607833081
:1052100071F40E949885882341F08AE597E00F9405
:10522000AB00882321F00E94A68E10926607809121
:10523000BD098823F1F08091BC098823D1F08091C9
:1052400066078330B1F08091AF07882391F40E9404
:105250003E1B882351F48CE191E09093C209809326
:10526000C10981E061E00E942B3F1092BD091092BC
:10527000CB0980916607813031F40E94988588239C
:1052800011F41092660780916607823041F480E63F
:1052900097E00F94AB00882311F01092660780917D
:1052A0006607843009F052C084E597E00F94AB00A4
:1052B000882349F08FE49AE06EE979E140E020E04C
:1052C0000E94994741C08091B007813019F480E96C
:1052D0009CE002C086E09CE048960E9460C0882363
:1052E00099F480917007882379F18091B007882321
:1052F00019F480E99CE002C086E09CE048960E9498
:1053000060C0882319F520C08091B007813019F45E
:1053100080E99CE002C086E09CE048960E942CC098
:105320008823A1F080917007882371F08091B007E5
:10533000882319F480E99CE002C086E09CE048964E
:105340000E942CC0882311F0109266078091660796
:105350008530E9F484E597E00F94AB00882349F0A9
:105360008FE49AE069E679E140E020E00E94994705
:105370000CC084E39BE00E9460C0882331F084E38A
:105380009BE00E942CC0882311F010926607809148
:105390006607863079F58EE497E00F94AB0088239A
:1053A00091F080914C0781FF06C08FE49AE060E0A5
:1053B0000E94A84D1FC01092660780919A0D8F7EA3
:1053C00080939A0D17C08FEF9AE00E9460C58823E2
:1053D00089F080914C0782FF04C08FEF9AE00E9411
:1053E000AEC30E94A94E80919A0D8F7E80939A0D34
:1053F0001092660780916607882311F00C94B136ED
:105400008091B3079091B407009711F40C94B136D2
:105410008FE49AE00E9429478091B5079091B607E2
:105420006091B1077091B2070F946F06E091B707D2
:10543000F091B807E80FF91F10811B38A1F11E3851
:1054400011F40C9497361B3911F40C94A0361938CA
:1054500011F40C949336163811F40C94A9361C38B8
:1054600011F40C9493361C3911F40C9493361039C2
:1054700011F40C949336133811F40C9493361438B9
:1054800011F40C949336183811F40C9493361439A3
:1054900011F40C9493360E94436C882311F00C9401
:1054A00093360C94B1368091B3079091B40789314B
:1054B000910510F40C94B13638DD81E080936607D5
:1054C000FEDCC254DF4F688379838A839B83CE5B83
:1054D000D040F5DCCE53DF4F688379838A839B838A
:1054E000C25CD040ECDCCA53DF4F688379838A8387
:1054F0009B83C65CD040E3DC6B017C01E0DC4B01AC
:105500005C01DDDCC653DF4F688379838A839B832C
:10551000CA5CD04080917007882349F08091B00721
:10552000882319F44601570102C075016401809176
:105530006707882351F4382D292D9A2D8B2D46018C
:105540005701C32ED22EE92EF82E8091C3099091D7
:10555000C409A091C509B091C609A5019401281BF1
:10556000390B4A0B5B0BDA01C901192FFA2FEB2F0C
:10557000BB0F880B982FDC01782F682F582F909144
:10558000990730919A0740909B0750909C07609034
:105590009D0770909E0700919F07B091A007920F02
:1055A00041E0921708F040E0310F21E0311708F098
:1055B00020E0430FA1E0431708F0A0E02A2B4F0E94
:1055C00031E04F1608F030E0240DF1E0241508F02A
:1055D000F0E03F2B5E0EF1E05E1608F0F0E0A32F46
:1055E000A50D31E0A51508F030E0F32B670EE1E0E2
:1055F000671608F0E0E0F60D31E0F61508F030E04F
:10560000E32B760E31E0761608F030E0E70D61E02E
:10561000E71508F060E0362B050F61E0051708F08C
:1056200060E0300F51E0301708F050E0562B8B0F40
:10563000580F9093990740939A0720939B07A09344
:105640009C07F0939D07E0939E0730939F0750932C
:10565000A0078091C7099091C809A091C909B0918C
:10566000CA09A7019601281B390B4A0B5B0BDA010B
:10567000C901192FFA2FEB2FBB0F880B982FDC01D4
:10568000782F682F582F9091A1073091A207409052
:10569000A3075090A4076090A5077090A6070091FB
:1056A000A707B091A807920F41E0921708F040E0D9
:1056B000310F21E0311708F020E0430FA1E043173C
:1056C00008F0A0E02A2B4F0E31E04F1608F030E032
:1056D000240DF1E0241508F0F0E03F2B5E0EF1E020
:1056E0005E1608F0F0E0A32FA50D31E0A51508F037
:1056F00030E0F32B670EE1E0671608F0E0E0F60D0E
:1057000031E0F61508F030E0E32B760E31E0761646
:1057100008F030E0E70D61E0E71508F060E0362BB7
:10572000050F61E0051708F060E0300F51E0301719
:1057300008F050E0562B8B0F580F9093A107409321
:10574000A2072093A307A093A407F093A507E093D3
:10575000A6073093A7075093A8078092C309909299
:10576000C409A092C509B092C609C092C709D092D7
:10577000C809E092C909F092CA090E94BC1900D078
:105780000F92ADB7BEB71196CD92DD92ED92FC921D
:105790001497CE018B5B9F4FC254DF4F48815981D4
:1057A0006A817B81CE5BD040CE53DF4F0881198167
:1057B0002A813B81C25CD040CA53DF4FC880D98068
:1057C000EA80FB80C65CD0400E9497500F900F90FB
:1057D0000F900F90CE018B5B9F4FC653DF4F4881D8
:1057E00059816A817B81CA5CD04000E010E020E0F2
:1057F00030E0EE2462C299DB81E0809366075FDBD4
:10580000C653DF4F688379838A839B83CA5CD04009
:1058100056DBC053DF4F688379838A839B83C05DE7
:10582000D0404DDBCC52DF4F688379838A839B83E2
:10583000C45DD04044DBC62EB72EA82E192F3FDB07
:105840004B01682E592E3BDBC852DF4F68837983AA
:105850008A839B83C85DD04068DB782E8091700777
:105860008823D9F08091B007882339F4BFEE7B22DA
:1058700073FE0AC0E0E17E2A07C0F7EF7F2274FEC4
:1058800008C028E0722A05C08C2C9B2C6A2C512E53
:1058900004C0C82CB92CA62C152D8091670788232D
:1058A00061F4382D292D962D852D8C2C9B2C6A2C5E
:1058B000512EC32EB22EA92E182F898A9A8A6B8A4E
:1058C0005C8ACD8ABE8AAF8A188FE9E9F7E0AE011B
:1058D0004F5E5F4FCE53DF4F59834883C25CD04049
:1058E00083EC99E0C254DF4F99838883CE5BD0402C
:1058F000A3E0B0E0CA53DF4FB983A883C65CD040B1
:10590000272D30E0C253DF4F39832883CE5CD0404F
:10591000CE51DF4F7882C25ED040CD51DF4FC8827A
:10592000C35ED040CC51DF4FB882C45ED040CA5174
:10593000DF4FA882C65ED040212E382C492CC95199
:10594000DF4F6882C75ED040C253DF4F88819981A4
:10595000CE5CD040CA53DF4F0880C65CD04002C046
:10596000959587950A94E2F7CE53DF4FA881B981C8
:10597000C25CD04080FF7DC04D915D916D917C9166
:10598000152FD62EC72EDB01CA01BB0F880B982F0F
:10599000DC01B82EA82E982E782E8081E18002811D
:1059A000B381A481358126818780982F940FFF24AD
:1059B000F394981708F0FF241E0D81E01E1508F0DF
:1059C00080E0F10EEE24E394F11608F0EE248E2927
:1059D000D00E11E0D01608F010E08D0D01E08D150D
:1059E00008F000E0102BCB0E01E0CB1608F000E031
:1059F0001C0DB1E01C1508F0B0E00B2BBA0EB1E0A5
:105A0000BA1608F0B0E00B0DA1E00B1508F0A0E00D
:105A1000BA2BA30EA1E0A31608F0A0E0BA0D31E066
:105A2000BA1508F030E0A32B920E31E0921608F080
:105A300030E0A90D21E0A91508F020E0322B870CF9
:105A4000380D9083F182828313830483B583A68308
:105A50003783C254DF4FA881B981CE5BD0400D910E
:105A60001D912D913C911397040F151F261F371F71
:105A700097C00D911D912D913C91C254DF4FA8818B
:105A8000B981CE5BD0404D915D916D917C91D901F2
:105A9000C801841B950BA60BB70BAC01BD01C52E2D
:105AA000B62EA72EBB0F880B982FDC01982E882EC0
:105AB000782EC452DF4F8883CC5DD040D080E18007
:105AC000F280B381A481958186816780C052DF4FC7
:105AD0006882C05ED0404D0D51E04D1508F050E099
