:100000000C94DC0E0C94150F0C94150F0C94150F1A
:100010000C94150F0C94150F0C94150F0C94150FD0
:100020000C94150F0C94150F0C94150F0C94150FC0
:100030000C94150F0C944E410C94150F0C94150F45
:100040000C94150F0C94150F0C94150F0C94150FA0
:100050000C94150F0C94150F0C94150F0C94150F90
:100060000C94150F0C94D2B60C94150F0C94FDB68D
:100070000C94150F0C9477AA0C94150F0C94150F73
:100080000C94DD400C94150F0C94150F0C94150F67
:100090000C94150F0C94150F0C94150F0C94150F50
:1000A0000C94150F0C94150F0C94150F0C94150F40
:1000B0000C94150F0C94150F0C94150F0C9476419D
:1000C0000C94150F0C94150F0C94150F0C94150F20
:1000D0000C94150F0C94150F0C94150F0C94150F10
:1000E0000C94150F1B3AA93A693A473A743A313BD6
:1000F000313B473A9D3A313BAC3AB03AC53AC93AFE
:10010000313B313B7C3A473A993A313B2E3A783A87
:10011000CD3AE23AEA3A313B313B103B502D537431
:100120006F702074726967676572656400526570EC
:100130006C69636174307220310024F404D9201B8F
:10014000C40C5C0E9804C4095F0265077101F405D4
:10015000F900FB04B30048048700C1036900580399
:10016000550003034500BE023A00840231005302E9
:100170002A002902250004022000E4011C00C80115
:100180001900AF01170098011400840113007101D8
:1001900010006101100051010E0043010D003601F5
:1001A0000B002B010B0020010B00150109000C01B5
:1001B000090003010800FB000800F3000800EB0041
:1001C0000700E4000600DE000600D8000600D200AA
:1001D0000600CC000500C7000500C2000500BD00F8
:1001E0000400B9000400B5000400B1000400AD0033
:1001F0000400A9000400A5000300A20003009F0062
:1002000004009B0003009800030095000200930087
:100210000300900003008D0002008B0003008800A3
:1002200002008600020084000300810002007F00BB
:1002300002007D0002007B000200790002007700CE
:1002400001007600020074000200720001007100DB
:1002500002006F0002006D0001006C0002006A00E5
:1002600001006900020067000100660001006500EE
:1002700001006400020062000100610001006000F2
:1002800001005F0002005D0001005C0001005B00F6
:1002900001005A00010059000100580001005700F8
:1002A00001005600010055000100540001005300F8
:1002B00000005300010052000100510001005000F5
:1002C00001004F0001004E0000004E0001004D00F3
:1002D00001004C0001004B0000004B0001004A00EF
:1002E00001004900010048000000480001004700EB
:1002F00001004600000046000100450000004500E6
:1003000001004400010043000000430001004200DE
:1003100000004200010041000000410001004000D7
:1003200001003F0000003F0001003E0000003E00D1
:1003300001003D0000003D0001003C0000003C00C9
:1003400000003C0001003B0000003B0001003A00BF
:1003500000003A00010039000000390001003800B7
:1003600000003800000038000100370000003700AE
:1003700001003600000036000000360001003500A4
:10038000000035000000350001003400000034009A
:10039000000034000100330000003300000033008F
:1003A0000100320000003200000032000100310084
:1003B000000031000000310001003000000030007A
:1003C0000000300001002F0000002F0000002F006F
:1003D00000002F0001002E0000002E0000002E0063
:1003E00001002D0000002D0000002D0000002D0058
:1003F00001002C0000002C0000002C0000002C004C
:1004000001002B0000002B0000002B0000002B003F
:1004100001002A0000002A0000002A0000002A0033
:100420000100290000002900000029000000290027
:10043000000029000100280000002800000028001A
:10044000000028000000280001002700000027000D
:100450000000270000002700000027000100260000
:1004600000002600000026000000260000002600F4
:1004700001002500000025000000250000002500E7
:1004800000002500000025000100240000002400D9
:1004900000002400000024000000240001002300CC
:1004A00000002300000023000000230000002300C0
:1004B00000002300000023000100220000002200B1
:1004C00000002200000022000000220000002200A4
:1004D0000100210000002100000021000000210097
:1004E0000000210000002100000021000100200088
:1004F000000020000000200000002000000020007C
:1005000000002000000020000000200001001F006B
:1005100000001F0000001F0000001F0000001F005F
:1005200000001F0000001F0001001E0000001E0050
:1005300000001E0000001E00000024F4D43050C350
:100540008E20C2A24017828B7011127A910D816C9D
:10055000D90AA861E108C7586607615143061E4BD6
:100560005D05C145A7041A411104093D980371397D
:1005700031034036DB0265339102D4305402802EC1
:100580001D02632CEE01752AC501B028A0011027B9
:1005900081018F2564012B244B01E0223401AC2121
:1005A0001F018D200D01801FFC00841EED00971D92
:1005B000DF00B81CD200E61BC600201BBC00641A7A
:1005C000B200B219A8000A19A0006A189900D11740
:1005D000910040178B00B516840031167E00B315CC
:1005E00079003A157300C7146F0058146A00EE13AF
:1005F00066008813630025135E00C7125B006C124F
:10060000570015125400C111510070114F002111F3
:100610004B00D61049008D104700461044000210D0
:100620004200C00F4000800F3E00420F3C00060F0A
:100630003B00CB0E3800930E37005C0E3500270EC2
:100640003400F30D3200C10D3100900D3000600D0B
:100650002E00320D2D00050D2C00D90C2B00AE0CF8
:100660002900850C29005C0C2700350C27000E0C96
:100670002600E80B2400C40B2400A00B23007D0BF4
:1006800023005A0B2100390B2100180B2000F80A17
:100690001F00D90A1E00BB0A1E009D0A1D00800A09
:1006A0001D00630A1C00470A1B002C0A1B00110ACC
:1006B0001A00F7091A00DD091900C4091900AB096D
:1006C0001900920917007B091800630917004C09EB
:1006D000160036091600200916000A091500F5084B
:1006E0001500E0081400CC081400B8081400A40891
:1006F0001400900813007D0812006B0813005808BE
:1007000012004608120034081100230811001208D4
:10071000110001081100F0071000E0071000D007D9
:100720001000C0071000B0070F00A10710009107CC
:100730000E0083070F0074070F0065070E005707B0
:100740000E0049070E003B070D002E070E00200784
:100750000D0013070D0006070D00F9060C00ED064D
:100760000D00E0060C00D4060C00C8060C00BC0608
:100770000C00B0060C00A4060B0099060C008D06B8
:100780000B0082060B0077060B006C060B0061065F
:100790000A0057060B004C060A0042060A003806FB
:1007A0000A002E060A0024060A001A060A0010068D
:1007B000090007060A00FD050900F4050900EB051C
:1007C0000900E2050900D9050900D0050900C7059F
:1007D0000900BE050900B5050800AD050800A5051E
:1007E00009009C050800940508008C050800840594
:1007F00008007C050800740508006C050700650505
:1008000008005D050700560508004E05070047056E
:1008100007004005080038050700310507002A05D4
:100820000700230507001C050600160507000F0535
:1008300007000805060002050700FB040600F50492
:100840000700EE040600E8040600E2040700DB04EB
:100850000600D5040600CF040600C9040600C30440
:100860000600BD040600B7040600B1040500AC0490
:100870000600A6040600A00405009B0406009504DB
:100880000500900406008A04050085040500800424
:1008900006007A04050075040500700405006B0469
:1008A000050066040500610405005C0405005704AA
:1008B0000500520405004D040500480405004304EA
:1008C00005003E0404003A04050035040500300428
:1008D00004002C04050027040400230405001E0462
:1008E00004001A04040016040500110404000D0499
:1008F0000400090405000404040000040400FC03CF
:100900000400F8030400F4030400F0030400EC0303
:100910000400E8030400E4030400E0030400DC0333
:100920000400D8030400D4030400D0030400CC0363
:100930000400C8030300C503030000002110422087
:1009400063308440A550C660E770088129914AA1B0
:100950006BB18CC1ADD1CEE1EFF131121002733227
:100960005222B5529442F772D662399318837BB300
:100970005AA3BDD39CC3FFF3DEE3622443342004B7
:100980000114E664C774A44485546AA54BB5288550
:100990000995EEE5CFF5ACC58DD553367226111607
:1009A0003006D776F6669556B4465BB77AA71997A0
:1009B0003887DFF7FEE79DD7BCC7C448E55886688F
:1009C000A7784008611802282338CCC9EDD98EE9F0
:1009D000AFF9488969990AA92BB9F55AD44AB77A67
:1009E000966A711A500A333A122AFDDBDCCBBFFB40
:1009F0009EEB799B588B3BBB1AABA66C877CE44C77
:100A0000C55C222C033C600C411CAEED8FFDECCD8F
:100A1000CDDD2AAD0BBD688D499D977EB66ED55E46
:100A2000F44E133E322E511E700E9FFFBEEFDDDFDF
:100A3000FCCF1BBF3AAF599F788F8891A981CAB16B
:100A4000EBA10CD12DC14EF16FE18010A100C2309D
:100A5000E3200450254046706760B9839893FBA358
:100A6000DAB33DC31CD37FE35EF3B1029012F322ED
:100A7000D2323542145277625672EAB5CBA5A895A8
:100A800089856EF54FE52CD50DC5E234C324A0143D
:100A900081046674476424540544DBA7FAB7998738
:100AA000B8975FE77EF71DC73CD7D326F23691068D
:100AB000B01657667676154634564CD96DC90EF980
:100AC0002FE9C899E9898AB9ABA9445865480678DD
:100AD0002768C018E1088238A3287DCB5CDB3FEB98
:100AE0001EFBF98BD89BBBAB9ABB754A545A376A2D
:100AF000167AF10AD01AB32A923A2EFD0FED6CDD68
:100B00004DCDAABD8BADE89DC98D267C076C645C7C
:100B1000454CA23C832CE01CC10C1FEF3EFF5DCF77
:100B20007CDF9BAFBABFD98FF89F176E367E554ECC
:100B3000745E932EB23ED10EF01E010049033600C2
:100B4000FF006B00D100A000B800D500A6000A018C
:100B500099003F018E0074018400A9017C00DE0130
:100B6000740013026C00480265007D025D00B20251
:100B70005600E7024E001C03460051033D00860369
:100B80003200BB032200F0030300FF030000D0FE8D
:100B9000C0FF18FFD0FF63FFE0FFB1FFF0FF0000D0
:100BA000000052001000A4002000F80030004D01A9
:100BB0004000A2015000F70160004C027000A0024A
:100BC0008000F30290004503A0009703B000E90302
:100BD000C0003B04D0008D04E000E004F0003305C9
:100BE000000187051001DB05200130063001DA061F
:100BF00050019302690000006900EE0169000000E5
:100C000069002601B801000000007003BC0000006C
:100C1000BC00E006BC000000BC00B807BC0000003F
:100C2000BC002D08BC00A908BC000000BC00C00D21
:100C30004D0100000000C00D20010000BC00531158
:100C4000BC000000BC005B12B10100000000C00D40
:100C5000C80000001400C00DC80000001400910E70
:100C60009001000014005A10900100001400C00D03
:100C7000200300000000C805C80000001400C805DB
:100C8000C80000001400C805C80000001400DD04FE
:100C9000B004000014007505C800000014007505BC
:100CA000C800000014007505C80000001400970477
:100CB000B00400000000700390010000140055040F
:100CC000C800000014002705C800000014007003CD
:100CD000900100000000C00DC80000001400C00D0D
:100CE000C800000014005A10C80000001400C00D15
:100CF0009001000000001704C8000000DC00270578
:100D00006400000078007505C8000000DC002006C3
:100D1000640000007800E006C8000000DC00200647
:100D2000C8000000DC002006C8000000DC002D0820
:100D3000C80000000000890899000000005265709A
:100D400047204275696C64009600FF8403690100C6
:100D500000140083048800000014008C00000000D0
:100D60000000000030F8FFFF00000000000000005D
:100D70009B000000000000000000000000000000D8
:100D80000000000000A51C0000180000A040950411
:100D90008304DC0500001400901F8B00000000009D
:100DA000000000A00F000000000000000000008014
:100DB0000000009B0000000000000000A40F0000E5
:100DC0000000000000000000A51C0000180AD72346
:100DD0003C95049B000000000000000000000000A3
:100DE0000000000000000000A00F000018F62820FE
:100DF000418002891B950000000042792068616EE5
:100E000064206D6F7665207468652065782D009587
:100E10000100000074727564657220746F2064694B
:100E200066666572656E7420009501000000706F43
:100E3000736974696F6E73206F766572207468656C
:100E400020200095070000006275696C6420706CBA
:100E50006174666F726D2E2E2E2E009500000000BC
:100E600041646A7573742074686520737061636986
:100E70006E6720200095010000006265747765654B
:100E80006E2074686520657874727564657200956B
:100E9000010000006E6F7A7A6C6520616E642070CC
:100EA0006C6174666F726D200095070000007769B1
:100EB000746820746865206B6E6F62732E2E2E002E
:100EC0009500000000756E6465722074686520707E
:100ED0006C6174666F726D202000950100000061E6
:100EE0006E642061207368656574206F6620706190
:100EF000706572009501000000706C61636564208C
:100F00006265747765656E207468652020009507BA
:100F1000000000706C6174666F726D20616E6420F9
:100F20007468652E2E2E0095000000006E6F7A7A90
:100F30006C652E205768656E20796F75206172652B
:100F4000009501000000646F6E652C20707265735F
:100F50007320746865202020202000950700000081
:100F600063656E74657220627574746F6E2E00898D
:100F70001F62003B020000202020435443204475A0
:100F8000706C696361746F72202020002020202023
:100F90002020202020202020202020202020202051
:100FA000002D2D204865617465722053706563695A
:100FB000616C202D2D0041546D6567612031323800
:100FC00030005361696C666973682076372E37206C
:100FD0004D4F44002F20202043004320202020009C
:100FE000200054686973206D656E752063616E2002
:100FF0006D616B6500796F757220626F7420696E28
:101000006F70657261626C652E005072657373203B
:10101000555020746F2070726F636565642E0053A5
:101020006176696E672E2E2E0053442063617264D0
:10103000207772697465206661696C656400656516
:1010400070726F6D5F64756D702E62696E20666977
:101050006C65616C7265616479206578697374731D
:1010600000526573746F72696E672E2E2E00526582
:101070006164206661696C65643B20454550524F50
:101080004D206D617920626520636F727275707496
:1010900000656570726F6D5F64756D702E62696E4C
:1010A0002066696C656E6F7420666F756E640045AE
:1010B000726173696E672E2E2E002A20507265733E
:1010C00073200078206D6F726521002020202000A1
:1010D00020736563730054696D65204C6566743ACE
:1010E0002020203030306830306D005A506F733A15
:1010F0002020202020202020202020202020200010
:10110000546573743A2000546F6C6572616E636548
:101110000053746172742044656C61790043616CA2
:101120006962726174696F6E005053746F702053FE
:10113000657474696E6773004572617365204565F7
:1011400070726F6D005344202D3E20456570726FA4
:101150006D00456570726F6D202D3E205344004533
:101160006570726F6D005072696E742054696D65A0
:101170003A202020682030306D004C61737420507C
:1011800072696E743A20202020682030306D004C47
:1011900069666574696D653A2020202020206820EA
:1011A00030306D00526573756D696E6720706F73B6
:1011B0006974696F6E2E2E2E00436C656172696EC4
:1011C00067206275696C642E2E2E202020004472E8
:1011D00061696E696E6720706970656C696E652EF5
:1011E0002E2E004C656176696E672070617573659F
:1011F0002E2E2E202020200043616E63656C6C69CA
:101200006E67207072696E742E2E2E2000456E74EB
:101210006572696E672070617573652E2E2E2020B1
:1012200020004C696E653A2020202031303030306B
:1012300030303030302B0050617573652061742080
:101240005A506F733A2000506C6174666F726D2053
:1012500054656D703A202020004C656674205465FA
:101260006D703A200052696768742054656D703A59
:101270002000546F6F6C68656164204F666673650B
:1012800074730020546F6F6C68656164204F6666EC
:101290007365743A00204F66667365743A00557042
:1012A0002F446E2F4C6566742F4D20746F2053654C
:1012B000740055702F446E2F522F4C2F4D20746F99
:1012C000205365740050726F66696C65204E616DC5
:1012D000653A005361766520546F2050726F6669DD
:1012E0006C65004368616E6765204E616D65004402
:1012F0006973706C617920436F6E6669670052652F
:1013000073746F72650052657365743A207072650C
:1013100073732043454E5445520046696C2E205449
:101320007269703A0046696C616D656E743A00547A
:101330007269703A004C6966653A0046696C616D85
:10134000656E74204F646F6D6574657200486561E9
:1013500074657273204F66660043616E63656C202E
:101360005072696E74005072696E742053746174A7
:10137000697374696373004261636B20746F204DFD
:101380006F6E69746F72004C696E653A2020202080
:101390002020202020202020202020006D006D6DA6
:1013A00000486F6D65204F666673657473005072F8
:1013B0006F66696C65730046696C616D656E743A41
:1013C000202020202020302E306D6D0046696C6179
:1013D0006D656E743A005A506F736974696F6E3A36
:1013E000005072696E742054696D653A2020202087
:1013F000206820206D0054656D706572617475728F
:10140000652072656164732020206F7574206F669B
:101410002072616E67652E202020202020204368E6
:1014200065636B20776972696E672E0054656D7015
:101430006572617475726520726561647320202025
:10144000617265206661696C696E672E20202020BC
:1014500020202020436865636B20776972696E677E
:101460002E0054656D7065726174757265206472CA
:101470006F7070696E67436865636B207769726926
:101480006E672E004E6F742068656174696E672008
:1014900070726F7065726C79436865636B207769F1
:1014A00072696E672E0054656D70206C696D697489
:1014B00020726561636865642E2053687574646F7B
:1014C000776E206F7220726573746172742E00459E
:1014D0006E636C6F73757265204661696C757265B9
:1014E00021202000506C6174666F726D2046616926
:1014F0006C7572652120202000546F6F6C203120A4
:101500004661696C75726521202020202000546F8F
:101510006F6C2030204661696C7572652120202037
:101520002020004578747275646572204661696C8C
:1015300075726521202020004865617465727320F2
:1015400073687574646F776E20647565746F206955
:101550006E6163746976697479004D792074656D84
:10156000706572617475726520776173202063689D
:10157000616E6765642065787465726E616C6C7904
:101580002E20526573656C6563742066696C616DAD
:10159000656E742020206D656E7520746F207472E6
:1015A0007920616761696E2E0077616974696E6781
:1015B000200020204E4120202020006572726F7292
:1015C00021002843616E6E6F74205072696E742022
:1015D000436F707929005072696E7420416E6F7488
:1015E00068657220436F7079004D61696E204D65AA
:1015F0006E7500556E5377617020546F6F6C68651F
:10160000616473202020005377617020546F6F6CE9
:101610006865616473202020202000446F6E742070
:101620004865617420456E636C6F73757265004820
:1016300065617420456E636C6F7375726520202040
:1016400020200053657420436F6F6C696E672046DD
:10165000616E204F46460053657420436F6F6C697E
:101660006E672046616E204F4E20004368616E67B2
:10167000652054656D7065726174757265004368AC
:10168000616E6765205370656564005061757365B0
:10169000206174205A506F7300446974746F205035
:1016A00072696E74696E67004E2F4100502D53743D
:1016B0006F7020436F6E74726F6C00436865636B6C
:1016C00020534420526561647300457874727564D8
:1016D000657220486F6C640050617573652077698E
:1016E00074682048656174004F766572726964653C
:1016F00020476354656D700043484520456E636C18
:101700006F737572650048425020696E7374616C26
:101710006C656400416363656C65726174696F6ECA
:101720000045786974204D656E7500536F756E6461
:1017300000457874727564657220436F756E74002D
:10174000426F7420537461746973746963730043E6
:10175000616C696272617465204E6F7A7A6C657330
:1017600000526573746F72652053657474696E6797
:10177000730047656E6572616C2053657474696EA1
:10178000677300507265686561742053657474698D
:101790006E6773004C6576656C204275696C6420D9
:1017A000506C61746500456E61626C6520537465B0
:1017B000707065727320200044697361626C6520EB
:1017C00053746570706572730056657273696F6EDD
:1017D00020496E666F726D6174696F6E0046696C48
:1017E000616D656E74204C6F6164696E6700486F4F
:1017F0006D652041786573004A6F67204D6F6465A1
:10180000004D6F6E69746F72204D6F646500557482
:10181000696C69746965730050726568656174000C
:101820005072696E742066726F6D205344004920B7
:1018300074696D6564206F7574207768696C6520C4
:101840002020617474656D7074696E6720746F20F8
:101850006865617420206D7920706C6174666F72A8
:101860006D2E00492074696D6564206F7574207752
:1018700068696C65202020617474656D7074696E90
:101880006720746F206865617420206D7920657809
:101890007472756465722E00556E61626C65207499
:1018A0006F2072656164205344202020636172645C
:1018B00020706172746974696F6E73206F766572DF
:1018C00032474220696E2073697A652E2020466F68
:1018D000726D61746173204641542D3136206F72F0
:1018E000202D33322E00556E61626C6520746F209E
:1018F0007265616420746869732053442063617267
:101900006420666F726D61742E2020202020466F47
:10191000726D6174206173204641542D3136206F01
:1019200072204641542D33322E005344206361729D
:10193000642072656164206572726F722E20546F2C
:101940006F206D616E7920435243206572726F7211
:10195000732E426164206361726420636F6E7461F0
:10196000637473206F72656C656374726963616C14
:10197000206E6F6973652E0053442063617264208A
:1019800072656164206572726F72005344206361F6
:101990007264206E6F742070726573656E7400538C
:1019A00044206361726420697320656D70747900EE
:1019B00043616E6E6F74206F70656E207468652071
:1019C00066696C65005344206361726420726561CE
:1019D0006473206172652020206E6F7420676F69C8
:1019E0006E672077656C6C2E2020547279612064BC
:1019F0006966666572656E7420636172640049276A
:101A00006D20616C7265616479206275696C6469CE
:101A10006E6700436F6C6420506175736500556E8E
:101A200070617573650050617573652020004361B6
:101A30006E63656C206C6F61642F756E6C6F616492
:101A40003F0043616E63656C207468697320707237
:101A5000696E743F0073657474696E67733F0052FA
:101A60006573746F726520666163746F7279004587
:101A70006E636C6F737572652020202020202020FB
:101A8000202000506C6174666F726D202020202031
:101A9000202020202020004C656674204578747238
:101AA00075646572202020202020005269676874C8
:101AB00020457874727564657220202020200045CE
:101AC00078747275646572202020202020202020E8
:101AD0002020005072657373206C65667420746FEB
:101AE0002063616E63656C0045787472756465721D
:101AF0003A2020202D2D2D2F2D2D2D4300456E63B6
:101B00006C6F737572653A20202D2D2D2F2D2D2D84
:101B10004300506C6174666F726D3A2020202D2D49
:101B20002D2F2D2D2D43004C204578747275646542
:101B3000723A202D2D2D2F2D2D2D4300522045782A
:101B40007472756465723A202D2D2D2F2D2D2D4325
:101B500000202D2D250048656174696E673A2020AC
:101B6000202020202020202020200048656174694A
:101B70006E673A00203C2D592020284D656E75294E
:101B8000202020202020202000203C2D582020280C
:101B90004D656E752920205A2D3E202020002020E2
:101BA000202020202020582D2020202020202020F0
:101BB000202000202020202020284D656E7529201F
:101BC00020592D3E202020002020202020202020D1
:101BD000582B2020202020202020202000202020E2
:101BE00020204A6F67206D6F646520202020202010
:101BF0002000556E6C6F6164206C65667400556ED4
:101C00006C6F616420726967687400556E6C6F61F7
:101C100064004C6F6164004C6F6164206C65667495
:101C2000004C6F61642072696768740035206D69CB
:101C30006E7574652074696D656F75742068617365
:101C4000656C61707365642E20205072657373201B
:101C50007468652063656E74657220627574746F54
:101C60006E20746F2020202066696E6973682E00D4
:101C7000426567696E206C6F6164696E67206F7280
:101C800020202020756E6C6F6164696E672E205075
:101C9000726573732074686563656E746572206223
:101CA0007574746F6E207768656E202066696E6942
:101CB000736865642E00457874727564657273206C
:101CC000617265206E6F7420202068656174696E92
:101CD000672E2020436865636B20746865207769F0
:101CE00072696E672E00592041786973204C696EC5
:101CF0006500582041786973204C696E650059452C
:101D000053004E4F2000446F6E650053656C656351
:101D1000742062657374206C696E65733A0045784F
:101D200074727564657200456E636C6F737572656D
:101D300000506C6174666F726D005475726E20484D
:101D4000656174657273204F464600537461727406
:101D50002050726568656174696E670046726565DA
:101D6000205352414D20004F4646004F4E20000068
:101D70004B34433CB13C5748C04B7B4D11620E760F
:101D80004479E084E5A1D4A209AA10AAA6AA48AB86
:101D9000B3AFB9AFD1B2F2B313B687B630B73BB772
:101DA000D4BB7BBDF5BDC1BEDABF7CC0FFC0A0C245
:101DB000E0C299C51AC99BF3E7EBFDE185EC91E21E
:101DC00001C08193EF3FF907E0F3D9F311241FBE5F
:101DD000CFEFD1E2DEBFCDBF17E0A0E0B2E0ECE68E
:101DE000F1EF01E00BBF02C007900D92A632B107E0
:101DF000D9F71DE1A6E2B7E001C01D92A73BB107EC
:101E0000E1F71DE1C8EBDDE100E006C02297010922
:101E1000FE010BBF0E9406F8C037D10780E008071B
:101E2000A9F70E949E3C0C94B4F80C940000A0E327
:101E3000B0E0EDE1FFE00C94D1F7298F3A8F4B8FA2
:101E40005C8F6D8F7E8F8F8F98A3A98ABA8ACB8A79
:101E5000DC8AED8AFE8A0F8B188F098D1A8D2B8DE7
:101E60003C8D09A31AA32BA33CA3680179018FEF32
:101E70009FEFA0E0B0E0C822D922EA22FB2289012C
:101E80002227332709A71AA72BA73CA709891A8954
:101E90002B893C890DA31EA32FA338A74801590104
:101EA00088229922AA22BB22290166247724C5010F
:101EB000B401A70196010E9440F76DA77EA78FA7E6
:101EC00098ABC301B2010E9440F76B017C01C501D0
:101ED000B40129A53AA54BA55CA50E9440F74B018A
:101EE0005C01C301B2010E9440F7AB01BC01C80C08
:101EF000D91CEA1CFB1C0DA51EA52FA538A9C901DC
:101F0000AA27BB27C80ED91EEA1EFB1EC814D90477
:101F1000EA04FB0420F4405050406F4F7F4FC7014C
:101F2000AA27BB27840F951FA61FB71F8D839E83EB
:101F3000AF83B8877601DD24CC244DA55EA56FA5BF
:101F400078A960707070C40ED51EE61EF71EC98297
:101F5000DA82EB82FC821C2D0A818B804C808D877B
:101F60008E818E878F818F878885888B2D893E898A
:101F70004F89588D69A17AA18BA19CA10E9440F73D
:101F80006B017C012D8D3E8D4F8D58A16DA17EA1E1
:101F90008FA198A50E9440F7DC01CB01C80ED91E85
:101FA000EA1EFB1E8D859E85AF85B8898C0D9D1D13
:101FB000AE1DBF1D8D879E87AF87B88B682F7E852E
:101FC000212F302F482D542D8F859889E096E0E100
:101FD0000C94EDF7CF92DF92EF92FF920F93CF9395
:101FE000DF93CDB7DEB760970FB6F894DEBF0FBEB4
:101FF000CDBF002309F45AC029873A874B875C87F5
:102000006D877E878F87988B80E2801B4D855E85EC
:102010006F8578891816B4F01D821E821F8218867B
:10202000992787FD9095909581959F4F04C076954F
:102030006795579547958A95D2F749835A836B835D
:102040007C832CC06A017B01002E04C0F694E794C7
:10205000D794C7940A94D2F7CD82DE82EF82F886B5
:102060006A017B0104C0CC0CDD1CEE1CFF1C8A95B0
:10207000D2F7D701C60149855A856B857C8504C096
:1020800076956795579547950A95D2F7842B952BAA
:10209000A62BB72B89839A83AB83BC8329813A8192
:1020A0004B815C816D817E818F81988560960FB6B2
:1020B000F894DEBF0FBECDBFDF91CF910F91FF909F
:1020C000EF90DF90CF900895CF92DF92EF92FF9242
:1020D0000F93CF93DF93CDB7DEB760970FB6F89429
:1020E000DEBF0FBECDBF002309F45AC029873A874F
:1020F0004B875C876D877E878F87988B80E2801BFC
:1021000049855A856B857C851816B4F019821A8228
:102110001B821C82992787FD9095909581959F4FF2
:1021200004C0440F551F661F771F8A95D2F74D8351
:102130005E836F8378872CC06A017B01002E04C008
:10214000CC0CDD1CEE1CFF1C0A94D2F7C982DA828B
:10215000EB82FC826A017B0104C0F694E794D79479
:10216000C7948A95D2F7D701C6014D855E856F85E4
:10217000788904C0440F551F661F771F0A95D2F750
:10218000842B952BA62BB72B8D839E83AF83B8878B
:1021900029813A814B815C816D817E818F81988517
:1021A00060960FB6F894DEBF0FBECDBFDF91CF9122
:1021B0000F91FF90EF90DF90CF9008950F93CF9302
:1021C000DF93CDB7DEB760970FB6F894DEBF0FBED2
:1021D000CDBF002309F456C029873A874B875C8717
:1021E0006D877E878F87988B20E2201B8D859E854B
:1021F000AF85B889AC01BD011216B4F0770F440B5E
:10220000542FBA014D835E836F837887332727FD70
:102210003095309521953F4F04C0B595A79597957A
:1022200087952A95D2F722C0002E04C07595679530
:10223000579547950A94D2F74D835E836F837887CD
:1022400004C0880F991FAA1FBB1F2A95D2F7498582
:102250005A856B857C8504C076956795579547951B
:102260000A95D2F7842B952BA62BB72B89839A83BB
:10227000AB83BC8329813A814B815C816D817E81F6
:102280008F81988560960FB6F894DEBF0FBECDBFE4
:10229000DF91CF910F910895A8E4B0E0E2E5F1E17C
:1022A0000C94D0F7F50129A33AA34BA35CA36DA32B
:1022B0007EA38FA398A7A98EFA8FCB8EDC8EED8E8E
:1022C000FE8E0F8F18A38DA09EA0AFA0B8A4B7FE5E
:1022D00067C02195B1E0121608F0B0E03195A1E099
:1022E000131608F0A0E0B32EBB1ABB2D88248394EC
:1022F0003B1508F08824A829419531E0141608F010
:1023000030E0B42EBA1AAB2D882483944B1508F014
:1023100088243829519541E0151608F040E0452EF3
:10232000431A31E0541508F030E0432B619531E059
:10233000161608F030E0862E841A41E0681508F081
:1023400040E0342B719541E0171608F040E0572F1C
:10235000531B31E0751708F030E0432B819531E0D5
:10236000181608F030E0682F641B462F61E08417D0
:1023700008F060E0362B9195931B29A3BAA3ABA379
:102380004CA28DA25EA34FA398A78FEF9FEFAFEF54
:10239000BFEF25968CAF9DAFAEAFBFAF259706C000
:1023A00025961CAE1DAE1EAE1FAE25978D8D9E8D43
:1023B000AF8DB8A1B7FF68C025962CAD3DAD4EAD31
:1023C0005FAD2597209530954095509525962CAF7B
:1023D0003DAF4EAF5FAF2597E19581E01E1608F047
:1023E00080E0F19591E01F1608F090E04F2F481B18
:1023F00081E0F41708F080E0982BC19481E01C1470
:1024000008F080E06C2D691B91E0C61608F090E0A2
:10241000892BD19491E01D1408F090E05D2D581B9C
:1024200081E0D51608F080E0982BE19481E01E143D
:1024300008F080E03E2D391B91E0E31608F090E0B3
:10244000892BF19491E01F1408F090E02F2D281BA8
:1024500081E0F21608F080E0982B019581E01016DB
:1024600008F080E0702F791B972F71E0091708F0B2
:1024700070E0872B1195181BE98F4A8F6B8F5C8F4B
:102480003D8F2E8F9F8F18A3798D6A8D5B8D4C8D1C
:102490003D8D2E8D9F8D88A1E9A1E98BEAA1EA8B64
:1024A000EBA1EB8BECA1EC8BEDA1ED8BEEA1EE8B18
:1024B000EFA1EF8BE8A5E88F79876A875B874C8768
:1024C0003D872E879F87888B89849A84AB84BC84C0
:1024D0008D859E85AF85B889E988FA880B891C8926
:1024E000EDAAFEAA0FAB18AFCD88DE88EF88F88C76
:1024F0000097A105B10509F0BFC3C814D904EA04C7
:10250000FB0408F04EC100E0801600E0900601E0F8
:10251000A00600E0B00660F41FEF81169104A1044C
:10252000B10409F098F480E090E0A0E0B0E017C0BA
:1025300020E0821620E0920620E0A20621E0B2060A
:1025400050F480E190E0A0E0B0E009C088E090E0C5
:10255000A0E0B0E004C088E190E0A0E0B0E0B50108
:10256000A401082E04C076956795579547950A945F
:10257000D2F7FA01E357FD4F208140E250E060E0DE
:1025800070E0481B590B6A0B7B0B421B5109610918
:1025900071094115510561057105A1F1042E04C0B1
:1025A000880C991CAA1CBB1C0A94D2F797018601BF
:1025B000042E04C0000F111F221F331F0A94D2F7EC
:1025C00080E290E0841B950BCDA8DEA8EFA8F8ACC4
:1025D00004C0F694E794D794C7948A95D2F7C02A9A
:1025E000D12AE22AF32A0DA91EA92FA938AD04C0C9
:1025F000000F111F221F331F4A95D2F70DAB1EABE0
:102600002FAB38AF25016624772495018401207013
:10261000307009AB1AAB2BAB3CABC701B601A301C1
:1026200092010E9492F72DA73EA74FA758AB69A72A
:102630007AA78BA79CA7C701B601A30192010E94AC
:1026400092F7CA01B90129A93AA94BA95CA90E942C
:1026500040F7AB01BC0109A51AA52BA53CA5780143
:10266000DD24CC240DA91EA92FA938ADC901AA27A4
:10267000BB27C82AD92AEA2AFB2A0DA51EA52FA501
:1026800038A9C416D506E606F70638F501501040FD
:102690002040304009A71AA72BA73CA7C80CD91C7B
:1026A000EA1CFB1CC814D904EA04FB04D0F0C416CD
:1026B000D506E606F706A8F40DA51EA52FA538A990
:1026C000025010402040304009A71AA72BA73CA772
:1026D000C80CD91CEA1CFB1C04C009A71AA72BA70D
:1026E0003CA7C41AD50AE60AF70AC701B601A30136
:1026F00092010E9492F72DA73EA74FA758AB69AF52
:102700007AAF8BAF9CAFC701B601A30192010E94C3
:1027100092F7CA01B90129A93AA94BA95CA90E945B
:1027200040F76B017C0149AD5AAD6BAD7CAD9A01B0
:10273000112700274DA95EA96FA978AD6070707050
:10274000042B152B262B372B8DA59EA5AFA5B8A93D
:102750000C151D052E053F05C0F40197A109B1090F
:10276000080D191D2A1D3B1D081519052A053B05D5
:1027700060F00C151D052E053F0538F48DA59EA5AE
:10278000AFA5B8A90297A109B10909A51AA52BA55A
:102790003CA57801DD24CC24C82AD92AEA2AFB2AC0
:1027A000B9C481149104A104B10451F461E070E052
:1027B00080E090E0A50194010E9492F749015A013E
:1027C00010E0811610E0910611E0A10610E0B106BC
:1027D00060F42FEF82169104A104B10409F098F47B
:1027E00080E090E0A0E0B0E017C030E0831630E079
:1027F000930630E0A30631E0B30650F480E190E0A8
:10280000A0E0B0E009C088E090E0A0E0B0E004C043
:1028100088E190E0A0E0B0E0B501A401082E04C07A
:1028200076956795579547950A94D2F7FA01E3573D
:10283000FD4F2081AC01BD01420F511D611D711D75
:1028400080E290E0A0E0B0E0841B950BA60BB70BF4
:1028500051F4C818D908EA08FB08F1E04F2E512CB2
:10286000612C712C28C1082E04C0880C991CAA1C4C
:10287000BB1C0A94D2F797018601042E04C036953A
:102880002795179507950A94D2F709AB1AAB2BAB8E
:102890003CAB97018601082E04C0000F111F221FB8
:1028A000331F0A94D2F70DA71EA72FA738ABEDA8A8
:1028B000FEA80FA918AD04C016950795F794E794E4
:1028C0004A95D2F7B801A7010DA51EA52FA538A9D5
:1028D000042B152B262B372B0DA71EA72FA738ABA4
:1028E000EDA8FEA80FA918AD04C0EE0CFF1C001F38
:1028F000111F8A95D2F7EDAAFEAA0FAB18AF2501DA
:1029000066247724950184012070307009AF1AAFD6
:102910002BAF3CAF69A97AA98BA99CA9A30192010D
:102920000E9492F729A73AA74BA75CA76B017C01ED
:1029300069A97AA98BA99CA9A30192010E9492F787
:10294000CA01B90129AD3AAD4BAD5CAD0E9440F76B
:10295000AB01BC017601DD24CC240DA51EA52FA55D
:1029600038A9C901AA27BB27C82AD92AEA2AFB2ADB
:1029700009A51AA52BA53CA5C416D506E606F7069B
:1029800038F5015010402040304009AB1AAB2BAB5A
:102990003CABC80CD91CEA1CFB1CC814D904EA04C3
:1029A000FB04D0F0C416D506E606F706A8F409A580
:1029B0001AA52BA53CA5025010402040304009AB81
:1029C0001AAB2BAB3CABC80CD91CEA1CFB1C04C0DB
:1029D00009AB1AAB2BAB3CABC41AD50AE60AF70A13
:1029E000C701B601A30192010E9492F729A73AA755
:1029F0004BA75CA721966CAF7DAF8EAF9FAF2197A1
:102A0000C701B601A30192010E9492F7CA01B90160
:102A100029AD3AAD4BAD5CAD0E9440F78B019C01F6
:102A200021964CAD5DAD6EAD7FAD2197DA01992752
:102A300088274DA55EA56FA578A960707070842B5E
:102A4000952BA62BB72B49A55AA56BA57CA580175E
:102A50009107A207B307F0F4415050406040704026
:102A6000880D991DAA1DBB1D88159905AA05BB05D2
:102A700088F080179107A207B30760F449A55AA50B
:102A80006BA57CA54250504060407040880D991D58
:102A9000AA1DBB1D6C017D01C01AD10AE20AF30A0E
:102AA00009A91AA92BA93CA9380155244424442A70
:102AB000552A662A772A8501222733270DA71EA7C4
:102AC0002FA738AB950184012070307009AF1AAF81
:102AD0002BAF3CAFC701B6012DA53EA54FA558A908
:102AE0000E9492F729A73AA74BA75CA769AB7AABDC
:102AF0008BAB9CABC701B6012DA53EA54FA558A930
:102B00000E9492F7CA01B90129AD3AAD4BAD5CAD57
:102B10000E9440F7AB01BC0109A91AA92BA93CA945
:102B20007801DD24CC240DA91EA92FA938ADC90137
:102B3000AA27BB27C82AD92AEA2AFB2A09A51AA547
:102B40002BA53CA5C416D506E606F70638F50150B8
:102B500010402040304009AB1AAB2BAB3CABC80C4B
:102B6000D91CEA1CFB1CC814D904EA04FB04D0F0ED
:102B7000C416D506E606F706A8F409A51AA52BA5DE
:102B80003CA5025010402040304009AB1AAB2BABA3
:102B90003CABC80CD91CEA1CFB1C04C009AB1AAB2B
:102BA0002BAB3CABC41AD50AE60AF70AC701B6013B
:102BB0002DA53EA54FA558A90E9492F729A73AA78F
:102BC0004BA75CA721966CAF7DAF8EAF9FAF2197CF
:102BD000C701B6012DA53EA54FA558A90E9492F7A1
:102BE000CA01B90129AD3AAD4BAD5CAD0E9440F7C9
:102BF0008B019C0121964CAD5DAD6EAD7FAD2197F3
:102C0000DA01992788274DA95EA96FA978AD607070
:102C10007070842B952BA62BB72B49A55AA56BA5B5
:102C20007CA580179107A207B307D0F4415050400C
:102C300060407040880D991DAA1DBB1D881599051F
:102C4000AA05BB0568F080179107A207B30740F4F7
:102C500049A55AA56BA57CA54250504060407040E4
:102C600009A91AA92BA93CA97801DD24CC24C42ADE
:102C7000D52AE62AF72A51C2C816D906EA06FB0663
:102C800008F438C2803010E0910711E0A10710E08D
:102C9000B10758F48F3F9105A105B10509F090F4F3
:102CA00000E010E020E030E016C0803020E0920725
:102CB00020E0A20721E0B20750F400E110E020E09C
:102CC00030E009C008E010E020E030E004C008E196
:102CD00010E020E030E0AC01BD01002E04C076958C
:102CE0006795579547950A94D2F7FA01E357FD4F38
:102CF0004081040F111D211D311D40E250E060E0B4
:102D000070E0401B510B620B730BA1F48C159D05F9
:102D1000AE05BF0508F4F5C1EDA8FEA80FA918ADD2
:102D2000442455243201E814F9040A051B0508F06F
:102D3000EBC1E3C1342E2C013D0104C0440C551CF1
:102D4000661C771C4A95D2F7D501C401002E04C039
:102D5000B695A795979587950A94D2F7482A592A48
:102D60006A2A7B2AA5019401032C04C0220F331F79
:102D7000441F551F0A94D2F729AF3AAF4BAF5CAF4F
:102D8000B701A601002E04C0769567955795479523
:102D90000A94D2F749AB5AAB6BAB7CABC701B60117
:102DA000032C04C0660F771F881F991F0A94D2F75F
:102DB0006DA77EA78FA798AB8DA99EA9AFA9B8AD27
:102DC00004C0B695A795979587950A95D2F74DA516
:102DD0005EA56FA578A9482B592B6A2B7B2B4DA795
:102DE0005EA76FA778AB4301AA24BB24930182019D
:102DF0002070307021960CAF1DAF2EAF3FAF2197E2
:102E000069A97AA98BA99CA9A50194010E9492F7AE
:102E100029A73AA74BA75CA76B017C0169A97AA9EE
:102E20008BA99CA9A50194010E9492F7CA01B9013E
:102E300021962CAD3DAD4EAD5FAD21970E9440F780
:102E4000DC01CB017601DD24CC240DA51EA52FA528
:102E500038A9A90166277727C42AD52AE62AF72A9E
:102E600009A51AA52BA53CA5C816D906EA06FB0696
:102E700038F5015010402040304009AB1AAB2BAB65
:102E80003CABC40CD51CE61CF71CC414D504E604EA
:102E9000F704D0F0C816D906EA06FB06A8F409A57F
:102EA0001AA52BA53CA5025010402040304009AB8C
:102EB0001AAB2BAB3CABC40CD51CE61CF71C04C0F6
:102EC00009AB1AAB2BAB3CABC81AD90AEA0AFB0A0E
:102ED000C701B601A50194010E9492F729A73AA75C
:102EE0004BA75CA729966CAF7DAF8EAF9FAF29979C
:102EF000C701B601A50194010E9492F7CA01B90168
:102F000021962CAD3DAD4EAD5FAD21970E9440F7AF
:102F10004B015C0129964CAD5DAD6EAD7FAD29973F
:102F20009A01112700278DA59EA5AFA5B8A9A0706D
:102F3000B070082B192B2A2B3B2B89A59AA5ABA582
:102F4000BCA5081519052A053B05E0F40197A10960
:102F5000B109040D151D261D371D0415150526057F
:102F6000370580F0081519052A053B0558F489A591
:102F70009AA5ABA5BCA50297A109B109040D151D21
:102F8000261D371DB901A801481959096A097B098D
:102F90004DA75EA76FA778AB09A91AA92BA93CA9D1
:102FA0007801DD24CC24C82AD92AEA2AFB2AFFEF9B
:102FB0008F2EFFEF9F2EA12CB12C8C209D20AE20B8
:102FC000BF2087012227332709A71AA72BA73CA7D1
:102FD00049AC5AAC6BAC7CAC2FEF3FEF40E050E01B
:102FE000422253226422752229AD3AAD4BAD5CAD2D
:102FF0008A012227332709AB1AAB2BAB3CABC501A7
:10300000B401A30192010E9440F769AF7AAF8BAF80
:103010009CAFC501B40129A93AA94BA95CA90E949A
:1030200040F74B015C0169A57AA58BA59CA5A3017E
:1030300092010E9440F72B013C0169A57AA58BA55E
:103040009CA529A93AA94BA95CA90E9440F7AB010C
:10305000BC01840C951CA61CB71C09AD1AAD2BAD88
:103060003CADC901AA27BB27880E991EAA1EBB1E0C
:1030700084149504A604B70420F4405050406F4FC8
:103080007F4FC501AA27BB27840F951FA61FB71F17
:103090000DA51EA52FA538A9081719072A073B0754
:1030A00018F180179107A207B307A1F554019924DD
:1030B000882489AD9AADABADBCADA070B070880E60
:1030C000991EAA1EBB1E4DA95EA96FA978AD032C3F
:1030D00004C0440F551F661F771F0A94D2F7481586
:1030E00059056A057B05B0F40894C108D108E108C8
:1030F000F10810C0442455243201CC24DD2476018B
:103100000CC044245524320181E0C82ED12CE12C7E
:10311000F12C03C0442455243201FE01319688E08D
:10312000DF011D928A95E9F7C982DA82EB82FC827F
:103130004D825E826F8278862C2D3A814B815C8134
:10314000642D7E818F8198852596ECACFDAC0EAD0B
:103150001FAD2597E114F1040105110509F456C0CE
:103160002195E1E0121608F0E0E03195F1E0131648
:1031700008F0F0E0032F0E1BE1E0301708F0E0E06C
:10318000FE2B4195E1E0141608F0E0E0142F1F1B20
:1031900031E0411708F030E0E32B5195F1E01516CE
:1031A00008F0F0E0B52FBE1B31E05B1708F030E00F
:1031B000F32B6195E1E0161608F0E0E0462E4F1A79
:1031C00031E0641508F030E0E32B7195F1E017165B
:1031D00008F0F0E0A72FAE1B31E07A1708F030E0DE
:1031E000F32B8195E1E0181608F0E0E0F82EFF1AC5
:1031F000FF2D31E08F1508F030E0E32B9195302F53
:10320000412F5B2F642D7A2F8F2F9E1BC85BDF4FC2
:10321000E1E10C94ECF7FA01DC0102C005900D929B
:1032200021503040D8F7089580919609882351F4B1
:10323000809195098F5F80939509853018F081E022
:1032400080939609089581E00E944E4280E00C949C
:10325000304290914107981781F180934107809106
:103260008A07813019F410928A0703C081E08093A5
:103270008A0780914607909147072091480730912F
:103280004907309347072093460790934907809357
:10329000480780915A0790915B0720915C07309115
:1032A0005D0730935B0720935A0790935D078093E7
:1032B0005C0780918A070C9410810895F8942091FE
:1032C0008D0730918E0780918B0790918C07821B20
:1032D000930B789408950F931F93CF93DF93EC0192
:1032E0008B0188E59AE00E941BEA10925B0A10921B
:1032F0005C0A88E59AE0BE010E94EDE988E59AE063
:10330000B8010E94EDE9E091EC0AFF27E7FDF09596
:10331000EE0FFF1FE252F54F808191812AE0883540
:10332000920739F082ED9AE068E57AE00E9431C3B5
:1033300002C00E9459EA81E08093B70ADF91CF91E1
:103340001F910F9108951092B70AE091EC0AFF27A0
:10335000E7FDF095EE0FFF1FE252F54F808191815E
:103360002AE08835920721F482ED9AE00E94DCC3BE
:10337000E091EC0AFF27E7FDF095EE0FFF1FE25208
:10338000F54F80819181DC01ED91FC910480F58104
:10339000E02D0995089580918E030895109262079B
:1033A0000895882311F080E401C080E880938907A4
:1033B0006093980910929709089581E08093880797
:1033C000089580918907181634F48091980988230C
:1033D00021F082E0089580E0089581E008958091D1
:1033E0008907089581E090918907923008F480E080
:1033F0000895CF93DF93CDB7DEB764970FB6F894F7
:10340000DEBF0FBECDBFDC01CB018093840790935C
:103410008507A0938607B0938707CE0101960E9487
:103420000D7BCE01019662E070E00E9497484091CA
:103430008407509185076091860770918707FC018A
:1034400080819181A281B38184179507A607B70770
:103450001CF01092830703C081E080938307649679
:103460000FB6F894DEBF0FBECDBFDF91CF910895A8
:103470000F931F9300918407109185072091860771
:1034800030918707B801C9011F910F9108952091CC
:103490008D0730918E0781E02115310509F080E01C
:1034A0000895482F80918D0790918E0760918B072A
:1034B00070918C0786179707E8F420918D0730915B
:1034C0008E0780918F0790919007820F931F0E9423
:1034D0006BF7E0919107F0919207E80FF91F408395
:1034E00080918D0790918E07019690938E0780931F
:1034F0008D07089581E0EBE8F7E080870895CF938A
:1035000060E070E080E090E074DF1092830710923A
:1035100055071092560710925707109258071092AD
:103520005907C1E0C0938D03109299091092890741
:1035300010929B0910929A091092980910927B0799
:1035400010927C0710927D0710927E0710927F07E1
:10355000109280071092810710928207E3E7F7E04C
:1035600010927307118212821382148215821682BE
:10357000178210926B0710926C0710926D071092D1
:103580006E0710926F0710927007109271071092D9
:103590007207E3E6F7E0109263071182128213824A
:1035A00014821582168217821092A0091092A10926
:1035B0001092A2091092A30910929C0910929D09E1
:1035C00010929E0910929F0982E490E061E00E94AF
:1035D00092C18230E9F58FEF9FE060E00E9492C1D6
:1035E0008823B1F1C0934A071092500710925107F7
:1035F000109252071092530710924F0710924B07E8
:1036000010924C0710924D0710924E071092970996
:10361000109295091092960910924707109246074A
:10362000109249071092480710925B0710925A07B0
:1036300010925D0710925C071092450710924407A4
:10364000109243071092420710924107CF910895BC
:1036500010924A07C9CF53DF85E680938E031092FC
:103660008E0710928D071092900710928F0710927C
:1036700093071092940710924007089581E090916B
:103680004007963009F080E008952F923F924F92C4
:103690005F926F927F928F929F92AF92BF92CF92E2
:1036A000DF92EF92FF920F931F93CF93DF93CDB7EB
:1036B000DEB7AB970FB6F894DEBF0FBECDBF382E86
:1036C000882321F081E08093620705C08091620722
:1036D000882309F4FDC08E01095E1F4FC8010E94B6
:1036E0000D7B81E089838A832E010894411C511C43
:1036F00073E0672E712C89ED9BE00BA7212E08C08B
:103700000894411C511C83E69CE064E0662E712CF9
:10371000FC01ED58FF4F2081FC01222319F020A964
:1037200031A904C0E25AFF4F2081318121153105B2
:10373000B1F148960E947DAD882389F18BA5922D29
:10374000B3010E949F488C01FC0180809180A2807F
:10375000B380F2018081831531F451E0C52ED12C64
:10376000E12CF12C04C0CC24CA94DC2C760160E05E
:1037700070E080E090E4462D0E94E4789B01AC016B
:10378000C701B6010E9440F7DC01CB01880D991DED
:10379000AA1DBB1DF80180839183A283B383F4E04B
:1037A0006F16710409F0ACCF8CEE91E060ED77E01C
:1037B0000E94A3C1BC0180E090E00E948EF52091A0
:1037C000F9163091FA164091FB165091FC160E94A2
:1037D00094F69B01AC0160E074E284E799E40E94F6
:1037E000BBF40E945DF5C62EF72EE82ED92E8091EF
:1037F0004A07882339F180918A07882361F4CE0132
:10380000479664E070E00E949F488C01CE01479685
:1038100063E070E00BC0CE01479663E070E00E9469
:103820009F488C01CE01479664E070E00E949F485B
:10383000FC0180819181A281B381F8018083918311
:10384000A283B383CE0147964C2D5F2D6E2D7D2D27
:1038500000E010E020E030E0EE240E94467C3320BF
:10386000B9F5CE0103960E940D7BCE01039663E06D
:1038700070E00E949F488C0184EA99E063E070E068
:103880000E949F48FC0180819181A281B381F8014F
:1038900080839183A283B383CE01039664E070E0BA
:1038A0000E949F488C0184EA99E064E070E00E94E5
:1038B0009F48FC0180819181A281B381F8018083BE
:1038C0009183A283B383CE01039660E00E947C7A49
:1038D000AB960FB6F894DEBF0FBECDBFDF91CF9190
:1038E0001F910F91FF90EF90DF90CF90BF90AF901E
:1038F0009F908F907F906F905F904F903F902F9010
:1039000008952F923F924F925F926F927F928F9283
:103910009F92AF92BF92CF92DF92EF92FF920F935E
:103920001F93CF93DF93CDB7DEB7CD57D0400FB6FF
:10393000F894DEBF0FBECDBF182FCE018F5A9F4F18
:103940000E946248CE01CD960E946248112309F47C
:10395000C8C0EBE7F6E180E09081992309F481C2C9
:10396000DF0111979C91992309F47BC28F5FBD966B
:10397000833091F7DE019996E4EAF9E084E1019061
:103980000D928150E1F7CE0145960E940D7BCE014C
:10399000899660E070E00E949F486C01409180161B
:1039A0005091811660918216709183168EE090E09E
:1039B0000E94B8C14B015C0180E00E94997820E030
:1039C00030E040EA50E40E9494F60E945DF5DC018C
:1039D000CB01881A990AAA0ABB0AF6018082918251
:1039E000A282B382CE01899661E070E00E949F4876
:1039F0006C014091AD165091AE166091AF1670916A
:103A0000B01682E190E00E94B8C14B015C0181E0F8
:103A10000E94997820E030E040EA50E40E9494F659
:103A20000E945DF5DC01CB01881A990AAA0ABB0A3B
:103A3000F60180829182A282B382CE01899662E0F1
:103A400070E00E949F484091DA165091DB16609119
:103A5000DC167091DD16FC01408351836283738311
:103A6000CE01899663E070E00E949F484C01CE0130
:103A7000459663E070E00E949F48FC01808191813F
:103A8000A281B381F40180839183A283B383CE01A9
:103A9000899664E070E00E949F484C01CE014596F3
:103AA00064E070E00E949F48FC0180819181A281C6
:103AB000B381F40180839183A283B383CE018B59B8
:103AC0009F4FBE01675D7F4F0E94397ADE01DD9610
:103AD000FE01EB59FF4F84E101900D928150E1F717
:103AE00067C0DE01DD96E4EAF9E084E101900D9221
:103AF0008150E1F7CE0145960E940D7BCE0145969F
:103B000060E070E00E949F48FC014080518062802C
:103B10007380CE01459661E070E00E949F48FC01F1
:103B20000081118122813381CE01459662E070E0EF
:103B3000ED962FAFED97EE963FAFEE970E949F4820
:103B4000FC01C080D180E280F380CE01CD9663E09D
:103B500070E00E949F48FC0180809180A280B38029
:103B6000CE01CD9664E070E00E949F4800D000D066
:103B7000FC0180819181A281B381EDB7FEB7818381
:103B80009283A383B483CE010196B301A201ED9683
:103B90002FADED97EE963FADEE970E9463480F90E4
:103BA0000F900F900F90CE01019660E00E947C7AFA
:103BB0006091D0167091D1168091D2169091D31643
:103BC0000E9490F520E030E040E857E30E9494F630
:103BD0002091CC163091CD164091CE165091CF1633
:103BE0000E9494F60E945DF5262EEA967FAFEA9732
:103BF000EB968FAFEB97EC969FAFEC97CE018B597E
:103C00009F4F0E940D7BDE01AF5ABF4FFE01EB5963
:103C1000FF4F84E101900D928150E1F7CE018F5A60
:103C20009F4F60E070E00E949F48FC01808091807F
:103C3000A280B380CE01CD9660E070E00E949F48E4
:103C4000FC0180819181A281B381A5019401281B8F
:103C5000390B4A0B5B0BCA01B9010E9490F5209108
:103C600072163091731640917416509175160E9419
:103C7000BBF4C62E172F082FF92ECE018F5A9F4F57
:103C800061E070E00E949F48FC0180809180A280EA
:103C9000B380CE01CD9661E070E00E949F48FC01A8
:103CA00080819181A281B381A5019401281B390BE8
:103CB0004A0B5B0BCA01B9010E9490F520919F1637
:103CC0003091A0164091A1165091A2160E94BBF40B
:103CD000462E672E582E392ECE018F5A9F4F62E006
:103CE00070E00E949F48FC0180809180A280B38098
:103CF000CE01CD9662E070E00E949F48FC01808179
:103D00009181A281B381A5019401281B390B4A0B33
:103D10005B0BCA01B9010E9490F52091CC1630913D
:103D2000CD164091CE165091CF160E94BBF4762E40
:103D3000872EB82EA92E302F8C2D912FA02FBF2D7E
:103D4000BC01CD010C2D232F3B2FA90198010E940E
:103D500094F66B017C01352D842D962DA52DB32D68
:103D6000BC01CD01042D162D232F3B2FA901980155
:103D70000E9494F69B01AC01C701B6010E9440F479
:103D80006B017C019501872D982DA32FB22FBC01CB
:103D9000CD01A501072D182D252F342FA90198013C
:103DA0000E9494F69B01AC01C701B6010E9440F449
:103DB0000E94FBF67B018C0180914A07882339F130
:103DC00080918A07882361F4CE01CD9664E070E08B
:103DD0000E949F484C01CE01CD9663E070E00BC07D
:103DE000CE01CD9663E070E00E949F484C01CE0169
:103DF000CD9664E070E00E949F48FC018081918133
:103E0000A281B381F40180839183A283B3837090F4
:103E10009A1710929A178090D0169090D116A09071
:103E2000D216B090D316E6E0880C991CAA1CBB1CD5
:103E3000EA95D1F74501BB2497FCB094AB2CCE0199
:103E4000CD96422DEA965FADEA97EB966FADEB9774
:103E5000EC967FADEC9720E064010E94BE7D7092ED
:103E60009A17C358DF4F0FB6F894DEBF0FBECDBF11
:103E7000DF91CF911F910F91FF90EF90DF90CF9046
:103E8000BF90AF909F908F907F906F905F904F907A
:103E90003F902F9008951F93CF93DF93E82FF0E08A
:103EA000A3E0EE0FFF1FAA95E1F7ED58F84F208130
:103EB000318142815381648175818681978197FF29
:103EC00056C02195E1E0121608F0E0E03195F1E0EE
:103ED000131608F0F0E0132F1E1BE1E0311708F075
:103EE000E0E0FE2B4195E1E0141608F0E0E0D42F6D
:103EF000DF1B31E04D1708F030E0E32B5195F1E086
:103F0000151608F0F0E0C52FCE1B31E05C1708F065
:103F100030E0F32B6195E1E0161608F0E0E0B62FF3
:103F2000BF1B31E06B1708F030E0E32B7195F1E037
:103F3000171608F0F0E0A72FAE1B31E07A1708F053
:103F400030E0F32B8195E1E0181608F0E0E0382F1F
:103F50003F1BF32F31E08F1708F030E0E32B9195F2
:103F6000312F4D2F5C2F6B2F7A2F8F2F9E1BDF91C0
:103F7000CF911F9108957F928F929F92AF92BF929F
:103F8000CF92DF92EF92FF920F931F93CF93DF9325
:103F9000D82E81DFC22FC32EB42EA52E962E872EAB
:103FA000782ED92F191694F0992309F0A4C08823EC
:103FB00069F4772359F4662349F4552339F44423EB
:103FC00029F4332319F4222309F495C0ED2CFF249E
:103FD00087E390E0E80EF91E13E0EE0CFF1C1A9543
:103FE000E1F7C70100E010E020E030E040E050E001
:103FF00060E070E00E9446C2022F0C0F11E0021731
:1040000008F010E0C30E21E0C31608F020E01C0DFC
:1040100031E01C1508F030E0232BB40E31E0B4166B
:1040200008F030E02B0D41E02B1508F040E0342B78
:10403000A50E41E0A51608F040E03A0D51E03A1512
:1040400008F050E0452B960E51E0961608F050E02F
:10405000490D61E0491508F060E0562B870E61E0DC
:10406000871608F060E0580D71E0581508F070E010
:10407000672B780E71E0781608F070E0670D81E02C
:10408000671508F080E0782BD90F7D0FC7010E94DB
:1040900086C2ED2DF0E0B3E0EE0FFF1FBA95E1F719
:1040A000DF01AD59B84FED58F84F80818C93818175
:1040B00011968C931197828112968C93129783811B
:1040C00013968C931397848114968C9314978581FF
:1040D00015968C931597868116968C9316978781E3
:1040E00017968C9317971082118212821382148272
:1040F000158216821782DF91CF911F910F91FF9049
:10410000EF90DF90CF90BF90AF909F908F907F9077
:10411000089580E030DF81E02ECF1F93CF93DF93AF
:10412000E82FF0E083E0EE0FFF1F8A95E1F7ED59ED
:10413000F84F20813181428153816481758186816C
:10414000978197FF56C02195E1E0121608F0E0E054
:104150003195F1E0131608F0F0E0132F1E1BE1E09B
:10416000311708F0E0E0FE2B4195E1E0141608F06D
:10417000E0E0D42FDF1B31E04D1708F030E0E32BF7
:104180005195F1E0151608F0F0E0C52FCE1B31E097
:104190005C1708F030E0F32B6195E1E0161608F0AB
:1041A000E0E0B62FBF1B31E06B1708F030E0E32BE7
:1041B0007195F1E0171608F0F0E0A72FAE1B31E083
:1041C0007A1708F030E0F32B8195E1E0181608F03B
:1041D000E0E0382F3F1BF32F31E08F1708F030E07D
:1041E000E32B9195312F4D2F5C2F6B2F7A2F8F2F33
:1041F0009E1BDF91CF911F910895CF92DF92EF9296
:10420000FF921F93CF93DF9380E087DFB901CA014C
:1042100043E00E94B7786B017C0181E07EDFB90149
:10422000CA0144E00E94B7789B01AC01C701B60106
:104230000E9440F4C62FC72ED82F192F80E02BDE06
:10424000B901CA0143E00E94B7789B01AC018C2FF1
:104250009C2DAD2FB12FBC01CD010E9440F4D62F73
:10426000C72FC82E192F81E016DEB901CA0144E01C
:104270000E94B7789B01AC01FE018F2F9E2FAC2DC1
:10428000B12FBC01CD010E9440F4462F572F682F5B
:10429000792FCB01BA01DF91CF911F91FF90EF9061
:1042A000DF90CF9008950F931F93CF93DF93082F44
:1042B000C5E5D7E010E08881882369F4812F0E944A
:1042C000F1808883812F002319F00E94008103C0B0
:1042D00064E10E94E4801F5F2196153061F7DF9151
:1042E000CF911F910F9108951F93CF93DF93C5E551
:1042F000D7E010E0812F68810E94E48019921F5F4F
:104300001530C1F7DF91CF911F910895EF92FF9281
:104310001F93CF93DF93C82F40918F075091900741
:1043200020918B0730918C07E0909107F0909207D5
:104330004F5F5F4FCA01B9010E946BF7FC01EE0DA0
:10434000FF1D1081CF3F09F01C2F8091410788236A
:1043500029F081E0113009F480E0182F80918F0757
:10436000909190070296B9010E946BF78E0D9F1DE8
:10437000DC018C918D3009F490C08E3050F48C307B
:1043800008F071C0843008F045C1833009F040C1A5
:1043900010C0873109F45DC0883120F4803108F005
:1043A00037C138C18F3109F488C08F3709F030C167
:1043B000DCC080918F0790919007E0918F07F0917A
:1043C00090070496B9010E946BF78E0D9F1DDC01CA
:1043D0004C913596CF01B9010E946BF78E0D9F1D50
:1043E000FC01F080EE24E40EF11CE114F10411F460
:1043F00090DE23C0C12FD0E0CC0FDD1FFE01EA5BB1
:10440000F84F80819181009739F48DEF9FE060E053
:104410000E9492C1882389F0CA5BD84F8881998114
:10442000009751F4812F90E084559F4F880F991F7A
:1044300066EE70E00E94A3C17C01113019F483E69E
:104440009CE002C089ED9BE04896B7010E94A1ACB8
:1044500086C00E94E11991E0811190E0892F60E00F
:104460000E94E938D7C0113019F4E3E6FCE002C03D
:10447000E9EDFBE080918F07909190070496B901D8
:104480000E946BF78E0D9F1DDC016C9170E06170D6
:104490007070CF010E9471BFBDC080918F07909155
:1044A00090070496B9010E946BF78E0D9F1DFC01C9
:1044B000808181700E943042ADC00E9429BB882358
:1044C00009F4A8C080918F0790919007E0918B0725
:1044D000F0918C07C0919107D091920720918F079E
:1044E000309190070496BF010E946BF78C0F9D1FBF
:1044F000DC014C912B5F3F4FC901BF010E946BF75C
:104500008C0F9D1FFC01F081DF2F20E0C22FC40F14
:10451000D11D2097D1F080914407909145070097D5
:1045200039F48DEF9FE060E00E9492C1882369F02A
:104530008091440790914507009731F48CE591E014
:1045400064E670E00E94A3C1EC0187E09BE0BE013D
:104550000E94A1AC82E29AE061E00E942642809132
:104560006D0D8E7F80936D0D55C00E9433BB8823E7
:1045700009F450C080918F0790919007E0918B07CC
:10458000F0918C07C0919107D091920720918F07ED
:10459000309190070496BF010E946BF78C0F9D1F0E
:1045A000DC014C912B5F3F4FC901BF010E946BF7AB
:1045B0008C0F9D1FFC01F081DF2F20E0C22FC40F64
:1045C000D11D2097D1F08091420790914307009729
:1045D00039F48DEF9FE060E00E9492C1882369F07A
:1045E0008091420790914307009731F48EE59FE058
:1045F00062E370E00E94A3C1EC018BE79BE0BE0187
:104600000E94A1AC82E29AE061E00E942B42A7CF17
:1046100080E001C081E0DF91CF911F91FF90EF908A
:1046200008950F931F93CF93DF93CDB7DEB76997AC
:104630000FB6F894DEBF0FBECDBF809189078534D9
:1046400009F4FBC0863490F48134E9F1823438F403
:10465000803209F4D6C1803409F000C220C083340E
:1046600009F44DC0843408F054C037C0843809F4CC
:1046700092C1853850F4813809F45DC1833809F45A
:1046800072C1803809F0EAC1FAC0863809F49CC1C9
:10469000863808F48FC1873809F0E0C19AC10E94BA
:1046A0000937853051F00E940937843031F08DE0B0
:1046B00092E16EEC71E10E946B1981E480938907AD
:1046C00081E0F1DDCBC18091FF0D9091FE0D891B42
:1046D0008F7009F0C3C182E4BFC1CE0106960E946B
:1046E0000D7BA4EAB9E0FE01369684E101900D92BB
:1046F0008150E1F781E00E94451B83E4ADC18091C8
:10470000FF0D9091FE0D891B8F7009F0A7C184E405
:10471000A3C181E0F6D885E4809389070E94093718
:10472000853031F00E940937843011F010E001C06B
:1047300011E0CE01019661EF7AE145E00E946DB291
:10474000CE0101960E94C2B28093540780E00E947D
:10475000304280914C0C882329F08091090C909173
:104760000A0C04C08091370C9091380C90935B0731
:1047700080935A078091D60C882329F08091930C5E
:104780009091940C04C08091C10C9091C20C9093B4
:104790005D0780935C078091620B882329F08091EC
:1047A0001F0B9091200B04C080914D0B90914E0BEC
:1047B00090936107809360078091D60B882329F03E
:1047C0008091930B9091940B04C08091C10B9091B8
:1047D000C20B90935F0780935E07809198098823AE
:1047E00039F48EEF9FE060E00E9492C1882311F4BB
:1047F0000E94231980919809882321F088EF60E0B6
:104800000E94B48060919A0970919B0961157105AD
:1048100051F080919909882319F088EF91E1C7C080
:104820008DE092E1C4C0112319F088EF91E102C03C
:104830008DE092E169EB71E1BAC08091FF0D90913A
:10484000FE0D891B8F7009F009C14EDD8091990919
:10485000882311F080E201C081E0809389070E94E3
:10486000A3190E940937853009F4F8C00E9409375E
:10487000843009F4F3C087E00E9426BDEFC080E0D9
:1048800012DD8091600790916107181619066CF48B
:1048900087E09BE060E00E94EEAD60916007709160
:1048A000610787E09BE00E94A1AC80915E07909138
:1048B0005F07181619066CF48BE79BE060E00E9416
:1048C000EEAD60915E0770915F078BE79BE00E9401
:1048D000A1AC00914607109147070115110521F47D
:1048E00000915A0710915B071016110654F481EFDE
:1048F0009BE060E00E94EEAD81EF9BE0B8010E947A
:10490000A1AC00914807109149070115110521F448
:1049100000915C0710915D071016110654F48BE7A7
:104920009CE060E00E94EEAD8BE79CE0B8010E9445
:10493000A1AC81E891C08091600790916107181641
:1049400019060CF075C087E09BE00E947DAD8823BE
:1049500009F484C06DC08BE79BE00E947DAD882385
:1049600009F47CC06DC080915A0790915B071816BE
:1049700019060CF067C081EF9BE00E947DAD882393
:1049800009F46CC05FC08BE79CE00E947DAD88237A
:1049900009F464C05FC081E086DC80E00E94811C75
:1049A00085E88093890783EE91E164EA71E10E94D2
:1049B0006B1954C08091FF0D9091FE0D891B8F7073
:1049C00009F04CC086E848C080E00E94451B87E89B
:1049D00043C08091FF0D9091FE0D891B8F7009F0EF
:1049E0003DC0809154070E9430427EDC0E94A31992
:1049F0001092890710929B0910929A0910929709B8
:104A00002DC00E94A31960919A0970919B0982E2BE
:104A10009AE040E021E00E9445410E94E449109262
:104A20009B0910929A09109299091092890716C051
:104A300080915E0790915F07181619060CF48BCFD2
:104A400083E80AC080915C0790915D0718161906EB
:104A50000CF499CF49DC84E88093890769960FB6F6
:104A6000F894DEBF0FBECDBFDF91CF911F910F91A4
:104A70000895CF92DF92EF92FF920F931F93CF93FF
:104A8000DF93C0918E03C53609F464C0CC2309F4CA
:104A900061C0D0914F07CD1709F45CC0DD2309F444
:104AA00059C060914B0770914C0780914D079091D0
:104AB0004E07611571058105910509F44BC00E94EF
:104AC0008EF56B017C016C2F70E06D1B71098827DE
:104AD00077FD8095982F0E9490F59B01AC01C7014E
:104AE000B6010E94BBF46B017C016C2F70E080E08A
:104AF00090E00E948EF59B01AC0160E070E088ECD4
:104B000092E40E943FF49B01AC01C701B6010E94F0
:104B100094F6D62FC72E082FC92F862F9C2DA02F95
:104B2000BC2FBC01CD0120E030E040E050E00E940D
:104B3000B7F487FF04C0D0E0CC2400E0C0E08D2FA4
:104B40009C2DA02FBC2FBC01CD010E945DF58B01D7
:104B50009C0104C000E010E020E030E0B801C90191
:104B6000DF91CF911F910F91FF90EF90DF90CF9049
:104B70000895CF93DF93FC0182819381009721F404
:104B800081E0818780E019C0848195812081318115
:104B9000B9010E946BF7C681D781C80FD91F8481E4
:104BA00095810196B9010E946BF795838483828178
:104BB00093810197938382838881DF91CF910895B8
:104BC000EF92FF921F93CF93DF9300D0CDB7DEB764
:104BD0004BE8E42E47E0F42EC701CBDF682FC70176
:104BE0006A83C7DF782FC7017983C3DF182FC70116
:104BF000C0DF982F6A817981812F0F900F90DF910C
:104C0000CF911F91FF90EF9008951F93CF93DF9363
:104C1000CBE8D7E0CE01ADDF182FCE01AADF982F69
:104C2000812FDF91CF911F9108958BE897E0A1CF5D
:104C30002F923F924F925F926F927F928F929F92AC
:104C4000AF92BF92CF92DF92EF92FF920F931F939A
:104C5000CF93DF93CDB7DEB7CE5BD0400FB6F894DD
:104C6000DEBF0FBECDBF0E948249882309F57CC0FC
:104C700020918D0730918E0780918F07909190073A
:104C8000820F931F0E946BF7E0919107F0919207BA
:104C9000E80FF91F408380918D0790918E07019650
:104CA00090938E0780938D0704C01093930701C0E3
:104CB00011E080918D0790918E0720918B073091A4
:104CC0008C072817390711F40C94F3330E94D34949
:104CD000882311F40C94F3330E94D649482F809115
:104CE0008D0790918E0760918B0770918C078617C6
:104CF000970708F4BDCFD9CF80918F03882361F146
:104D000090918907992341F591E090939909813019
:104D100019F48BE899E107C08B3019F48AE299E124
:104D200002C088E799E190939B0980939A090E94B9
:104D300023198FEF60E00E94B48010928E071092CA
:104D40008D071092900710928F0710929307109280
:104D500094070E94CE3808C080919A0990919B09CF
:104D6000009711F40E94E4490E949DBD882309F533
:104D70004CC020918D0730918E0780918F079091C4
:104D80009007820F931F0E946BF7E0919107F091BB
:104D90009207E80FF91F408380918D0790918E074D
:104DA000019690938E0780938D0704C0109393070C
:104DB00001C011E080918D0790918E0720918B07A3
:104DC00030918C072817390711F40C94FB330E949B
:104DD000ABBD882311F40C94FB330E94B9BD482F5E
:104DE00080918D0790918E0760918B0770918C0751
:104DF0008617970708F4BDCFD9CF80918D07909182
:104E00008E07009711F40E94F2BD80918407909163
:104E10008507A0918607B09187070097A105B10586
:104E200029F180918307882309F5CE0183589F4F8C
:104E30000E940D7BCE0183589F4F62E070E00E947C
:104E4000974840918407509185076091860770913B
:104E50008707FC0180819181A281B3818417950726
:104E6000A607B7071CF481E080938307809184072D
:104E700090918507A0918607B09187070097A105BB
:104E8000B10511F40C94033480918307882311F445
:104E90000C9403340E94E119882311F00C9403341C
:104EA000CE0187599F4F0E940D7BCE0187599F4F9E
:104EB00062E070E00E949748409184075091850716
:104EC0006091860770918707FC0180819181A281A2
:104ED000B38184179507A607B70714F40C9403341D
:104EE00060E070E080E090E00E94F91981E060E00D
:104EF0000E94E9380C94313494DB0C943134113035
:104F0000B1F480919809882311F00C943134809188
:104F10008807882311F00C94313488EB9AE00E94C2
:104F20004EB6882311F40C9431340C940B348091D8
:104F30004007833071F40E946079882341F084E354
:104F400097E00E944EB6882321F00E94DB811092E8
:104F50004007809197098823E1F080919609882382
:104F6000C1F0809140078330A1F0809189078823A8
:104F700081F40E94E119882351F48CE191E090932F
:104F80009B0980939A0981E061E00E94E9381092C0
:104F9000970980914007813031F40E94607988231D
:104FA00011F41092400780914007823041F48AE367
:104FB00097E00E944EB6882311F01092400780912E
:104FC0004007843009F052C08EE297E00E944EB64E
:104FD000882349F082E29AE063E678E140E020E04D
:104FE0000E94454141C080918A07813019F483E6CF
:104FF0009CE002C089ED9BE048960E94B1AD8823F9
:1050000099F480914A07882379F180918A0788234F
:1050100019F483E69CE002C089ED9BE048960E946B
:10502000B1AD882319F520C080918A07813019F429
:1050300083E69CE002C089ED9BE048960E947DAD2E
:105040008823A1F080914A07882371F080918A0714
:10505000882319F483E69CE002C089ED9BE0489622
:105060000E947DAD882311F0109240078091400787
:105070008530E9F48EE297E00E944EB6882349F02D
:1050800082E29AE06EE278E140E020E00E94454151
:105090000CC087E09BE00E94B1AD882331F087E02F
:1050A0009BE00E947DAD882311F010924007809113
:1050B0004007863079F588E297E00E944EB6882353
:1050C00091F08091260781FF06C082E29AE060E0BD
:1050D0000E9442471FC01092400780916D0D8F7E45
:1050E00080936D0D17C082ED9AE00E948EC58823D3
:1050F00089F08091260782FF04C082ED9AE00E9429
:10510000DCC30E94444880916D0D8F7E80936D0DAD
:105110001092400780914007882311F00C9431349D
:1051200080918D0790918E07009711F40C94313483
:1051300082E29AE00E94D54080918F07909190077B
:1051400060918B0770918C070E946BF7E09191073B
:10515000F0919207E80FF91F10811B38A1F11E385A
:1051600011F40C9418341B3911F40C9421341938AF
:1051700011F40C941434163811F40C9429341C389E
:1051800011F40C9414341C3911F40C9414341039A7
:1051900011F40C941434133811F40C94143414389E
:1051A00011F40C941434183811F40C941434143988
:1051B00011F40C9414340E94D960882311F00C94DB
:1051C00014340C94313480918D0790918E0789317D
:1051D000910510F40C94313428DD81E08093400770
:1051E000EFDCCF56DF4F688379838A839B83C15975
:1051F000D040E6DCCB56DF4F688379838A839B837C
:10520000C559D040DDDCC756DF4F688379838A8378
:105210009B83C959D040D4DC6B017C01D1DC4B01AC
:105220005C01CEDCC356DF4F688379838A839B831E
:10523000CD59D04080914A07882349F080918A0750
:10524000882319F44601570102C075016401809159
:105250004107882351F4382D292D9A2D8B2D460195
:105260005701C32ED22EE92EF82E80919C099091E1
:105270009D09A0919E09B0919F09A5019401281B49
:10528000390B4A0B5B0BDA01C901192FFA2FEB2FEF
:10529000BB0F880B982FDC01782F682F582F909127
:1052A00073073091740740907507509076076090AF
:1052B00077077090780700917907B0917A07920F7D
:1052C00041E0921708F040E0310F21E0311708F07B
:1052D00020E0430FA1E0431708F0A0E02A2B4F0E77
:1052E00031E04F1608F030E0240DF1E0241508F00D
:1052F000F0E03F2B5E0EF1E05E1608F0F0E0A32F29
:10530000A50D31E0A51508F030E0F32B670EE1E0C4
:10531000671608F0E0E0F60D31E0F61508F030E031
:10532000E32B760E31E0761608F030E0E70D61E011
:10533000E71508F060E0362B050F61E0051708F06F
:1053400060E0300F51E0301708F050E0562B8B0F23
:10535000580F909373074093740720937507A09399
:105360007607F0937707E0937807309379075093A7
:105370007A078091A0099091A109A091A209B0910A
:10538000A309A7019601281B390B4A0B5B0BDA0115
:10539000C901192FFA2FEB2FBB0F880B982FDC01B7
:1053A000782F682F582F90917B0730917C07409081
:1053B0007D0750907E0760907F0770908007009176
:1053C0008107B0918207920F41E0921708F040E008
:1053D000310F21E0311708F020E0430FA1E043171F
:1053E00008F0A0E02A2B4F0E31E04F1608F030E015
:1053F000240DF1E0241508F0F0E03F2B5E0EF1E003
:105400005E1608F0F0E0A32FA50D31E0A51508F019
:1054100030E0F32B670EE1E0671608F0E0E0F60DF0
:1054200031E0F61508F030E0E32B760E31E0761629
:1054300008F030E0E70D61E0E71508F060E0362B9A
:10544000050F61E0051708F060E0300F51E03017FC
:1054500008F050E0562B8B0F580F90937B0740932A
:105460007C0720937D07A0937E07F0937F07E0934E
:105470008007309381075093820780929C09909215
:105480009D09A0929E09B0929F09C092A009D09256
:10549000A109E092A209F092A3090E94141900D078
:1054A00000D0ADB7BEB71196CD92DD92ED92FC92D1
:1054B0001497CE018F5B9F4FCF56DF4F48815981A4
:1054C0006A817B81C159D040CB56DF4F0881198159
:1054D0002A813B81C559D040C756DF4FC880D9804B
:1054E000EA80FB80C959D0400E9463480F900F901A
:1054F0000F900F90CE018F5B9F4FC356DF4F4881B7
:1055000059816A817B81CD59D04000E010E020E0D4
:1055100030E0EE2462C289DB81E08093400750DBFB
:10552000C356DF4F688379838A839B83CD59D040EC
:1055300047DBCD55DF4F688379838A839B83C35ACA
:10554000D0403EDBC955DF4F688379838A839B83D4
:10555000C75AD04035DBC62EB72EA82E192F30DB08
:105560004B01682E592E2CDBC555DF4F688379839C
:105570008A839B83CB5AD04058DB782E80914A0790
:105580008823D9F080918A07882339F4BFEE7B22E3
:1055900073FE0AC0E0E17E2A07C0F7EF7F2274FEA7
:1055A00008C028E0722A05C08C2C9B2C6A2C512E36
:1055B00004C0C82CB92CA62C152D80914107882336
:1055C00061F4382D292D962D852D8C2C9B2C6A2C41
:1055D000512EC32EB22EA92E182F898A9A8A6B8A31
:1055E0005C8ACD8ABE8AAF8A188FE3E7F7E0AE0106
:1055F0004F5E5F4FCB56DF4F59834883C559D0402C
:105600008CE999E0CF56DF4F99838883C159D04008
:10561000A3E0B0E0C756DF4FB983A883C959D04093
:10562000272D30E0CF55DF4F39832883C15AD04032
:10563000CB54DF4F7882C55BD040CA54DF4FC8825D
:10564000C65BD040C954DF4FB882C75BD040C75457
:10565000DF4FA882C95BD040212E382C492CC6547C
:10566000DF4F6882CA5BD040CF55DF4F8881998178
:10567000C15AD040C756DF4F0880C959D04002C038
:10568000959587950A94E2F7CB56DF4FA881B981AB
:10569000C559D04080FF7DC04D915D916D917C9149
:1056A000152FD62EC72EDB01CA01BB0F880B982FF2
:1056B000DC01B82EA82E982E782E8081E180028100
:1056C000B381A481358126818780982F940FFF2490
:1056D000F394981708F0FF241E0D81E01E1508F0C2
:1056E00080E0F10EEE24E394F11608F0EE248E290A
:1056F000D00E11E0D01608F010E08D0D01E08D15F0
:1057000008F000E0102BCB0E01E0CB1608F000E013
:105710001C0DB1E01C1508F0B0E00B2BBA0EB1E087
:10572000BA1608F0B0E00B0DA1E00B1508F0A0E0F0
:10573000BA2BA30EA1E0A31608F0A0E0BA0D31E049
:10574000BA1508F030E0A32B920E31E0921608F063
:1057500030E0A90D21E0A91508F020E0322B870CDC
:10576000380D9083F182828313830483B583A683EB
:105770003783CF56DF4FA881B981C159D0400D91F1
:105780001D912D913C911397040F151F261F371F54
:1057900097C00D911D912D913C91CF56DF4FA8815F
:1057A000B981C159D0404D915D916D917C91D901E4
:1057B000C801841B950BA60BB70BAC01BD01C52E10
:1057C000B62EA72EBB0F880B982FDC01982E882EA3
:1057D000782EC155DF4F8883CF5AD040D080E180EA
:1057E000F280B381A481958186816780CD54DF4F9B
:1057F0006882C35BD0404D0D51E04D1508F050E07C
:10580000CE0C61E0CE1408F060E05C0D71E05C1538
:1058100008F070E0672BBF0C71E0BF1408F070E077
:105820006B0DFF24F3946B1508F0FF247F29AB0E5A
:10583000FF24F394AB1608F0FF247A0DB1E07A153B
:1058400008F0B0E0FB2A9A0EB1E09A1608F0B0E03A
:10585000F90CA1E0F91408F0A0E0BA2B890EA1E040
:10586000891608F0A0E0B80D91E0B81508F090E0B6
:10587000A92B982F970DEE24E394981708F0EE24A7
:10588000A90F81E0A91708F080E0E82ACD54DF4F86
:105890008881C35BD040C155DF4F7880CF5AD0405C
:1058A000870DE80E4083518362837383F482B5834E
:1058B000A683E782CF56DF4FA881B981C159D04076
:1058C0000D931D932D933C931397C756DF4F28815B
:1058D0003981C959D0402F5F3F4FC756DF4F3983B9
:1058E0002883C959D0403896CB56DF4F488159811B
:1058F000C559D0404C5F5F4FCB56DF4F598348832B
:10590000C559D040CF56DF4F88819981C159D040C9
:105910000496CF56DF4F99838883C159D0402530F4
:10592000310509F0A1CECB54DF4F7880C55BD04064
:10593000CA54DF4FC880C65BD040C954DF4FB8801F
:10594000C75BD040C754DF4FA880C95BD040832CD1
:10595000942CC654DF4F6880CA5BD0400E94141953
:1059600000D000D0EDB7FEB73196ADB7BEB71196F7
:10597000CC92B182A2822382CE018D96C356DF4F94
:10598000488159816A817B81CD59D040CD55DF4F07
:10599000088119812A813B81C35AD040C955DF4F04
:1059A000C880D980EA80FB80C75AD040A62CB52C8D
:1059B0000E9463480F900F900F900F90CE018D962C
:1059C00040E050E060E070E0C555DF4F088119818C
:1059D0002A813B81CB5AD040E72C0E94467C41C7AC
:1059E00024D981E080934007EBD8C356DF4F68830A
:1059F00079838A839B83CD59D040E2D8CD55DF4F40
:105A0000688379838A839B83C35AD040D9D8C95588
:105A1000DF4F688379838A839B83C75AD040D0D86D
:105A2000C62EB72E182FA92ECBD84B01782E692E53
:105A3000C7D8C555DF4F688379838A839B83CB5A48
:105A4000D040F3D8082F2FE7522E5822B9D8C1558D
:105A5000DF4F688379838A839B83CF5AD040D5D820
:105A6000CD54DF4F99838883C35BD04080914A0730
:105A70008823E9F080918A07882341F49FE6592E14
:105A8000502253FE0BC0B0E15B2A08C087E7582EB6
:105A9000502254FE08C0E8E05E2A05C08C2C9B2CE6
:105AA000712E6A2C04C0C82CB92C172DA62C8091FD
:105AB0004107882359F4382D292DC3018C2C9B2CA8
:105AC000712E6A2CC32EB22E192FA82E898A9A8A7B
:105AD0007B8A6C8ACD8ABE8A1F8BA88EE3E7F7E0AB
